{
    "abi": [
        {
            "type": "constructor",
            "inputs": [
                {
                    "name": "_finder",
                    "type": "address",
                    "internalType": "address"
                },
                {
                    "name": "_currency",
                    "type": "address",
                    "internalType": "address"
                },
                {
                    "name": "_optimisticOracleV3",
                    "type": "address",
                    "internalType": "address"
                },
                {
                    "name": "_rewardToken",
                    "type": "address",
                    "internalType": "address"
                },
                {
                    "name": "_commentManager",
                    "type": "address",
                    "internalType": "address"
                }
            ],
            "stateMutability": "nonpayable"
        },
        {
            "type": "function",
            "name": "addLabel",
            "inputs": [
                {
                    "name": "label",
                    "type": "string",
                    "internalType": "string"
                }
            ],
            "outputs": [],
            "stateMutability": "nonpayable"
        },
        {
            "type": "function",
            "name": "assertSource",
            "inputs": [
                {
                    "name": "topicId",
                    "type": "bytes32",
                    "internalType": "bytes32"
                },
                {
                    "name": "label",
                    "type": "string",
                    "internalType": "string"
                },
                {
                    "name": "url",
                    "type": "string",
                    "internalType": "string"
                },
                {
                    "name": "sourceDesc",
                    "type": "string",
                    "internalType": "string"
                }
            ],
            "outputs": [
                {
                    "name": "assertionId",
                    "type": "bytes32",
                    "internalType": "bytes32"
                }
            ],
            "stateMutability": "nonpayable"
        },
        {
            "type": "function",
            "name": "assertionDisputedCallback",
            "inputs": [
                {
                    "name": "assertionId",
                    "type": "bytes32",
                    "internalType": "bytes32"
                }
            ],
            "outputs": [],
            "stateMutability": "nonpayable"
        },
        {
            "type": "function",
            "name": "assertionLiveness",
            "inputs": [],
            "outputs": [
                {
                    "name": "",
                    "type": "uint64",
                    "internalType": "uint64"
                }
            ],
            "stateMutability": "view"
        },
        {
            "type": "function",
            "name": "assertionResolvedCallback",
            "inputs": [
                {
                    "name": "assertionId",
                    "type": "bytes32",
                    "internalType": "bytes32"
                },
                {
                    "name": "assertedTruthfully",
                    "type": "bool",
                    "internalType": "bool"
                }
            ],
            "outputs": [],
            "stateMutability": "nonpayable"
        },
        {
            "type": "function",
            "name": "commentManager",
            "inputs": [],
            "outputs": [
                {
                    "name": "",
                    "type": "address",
                    "internalType": "contract ICommentManager"
                }
            ],
            "stateMutability": "view"
        },
        {
            "type": "function",
            "name": "currency",
            "inputs": [],
            "outputs": [
                {
                    "name": "",
                    "type": "address",
                    "internalType": "contract IERC20"
                }
            ],
            "stateMutability": "view"
        },
        {
            "type": "function",
            "name": "defaultIdentifier",
            "inputs": [],
            "outputs": [
                {
                    "name": "",
                    "type": "bytes32",
                    "internalType": "bytes32"
                }
            ],
            "stateMutability": "view"
        },
        {
            "type": "function",
            "name": "finder",
            "inputs": [],
            "outputs": [
                {
                    "name": "",
                    "type": "address",
                    "internalType": "contract FinderInterface"
                }
            ],
            "stateMutability": "view"
        },
        {
            "type": "function",
            "name": "getSource",
            "inputs": [
                {
                    "name": "assertionId",
                    "type": "bytes32",
                    "internalType": "bytes32"
                }
            ],
            "outputs": [
                {
                    "name": "",
                    "type": "tuple",
                    "internalType": "struct SourceAsserter.Source",
                    "components": [
                        {
                            "name": "asserter",
                            "type": "address",
                            "internalType": "address"
                        },
                        {
                            "name": "topicId",
                            "type": "bytes32",
                            "internalType": "bytes32"
                        },
                        {
                            "name": "label",
                            "type": "bytes32",
                            "internalType": "bytes32"
                        },
                        {
                            "name": "url",
                            "type": "string",
                            "internalType": "string"
                        },
                        {
                            "name": "description",
                            "type": "bytes",
                            "internalType": "bytes"
                        },
                        {
                            "name": "status",
                            "type": "uint8",
                            "internalType": "enum SourceAsserter.Status"
                        },
                        {
                            "name": "createdAt",
                            "type": "uint256",
                            "internalType": "uint256"
                        },
                        {
                            "name": "disputedAt",
                            "type": "uint256",
                            "internalType": "uint256"
                        },
                        {
                            "name": "ecpCommentId",
                            "type": "bytes32",
                            "internalType": "bytes32"
                        }
                    ]
                }
            ],
            "stateMutability": "view"
        },
        {
            "type": "function",
            "name": "getTopic",
            "inputs": [
                {
                    "name": "topicId",
                    "type": "bytes32",
                    "internalType": "bytes32"
                }
            ],
            "outputs": [
                {
                    "name": "",
                    "type": "tuple",
                    "internalType": "struct SourceAsserter.Topic",
                    "components": [
                        {
                            "name": "title",
                            "type": "bytes",
                            "internalType": "bytes"
                        },
                        {
                            "name": "description",
                            "type": "bytes",
                            "internalType": "bytes"
                        },
                        {
                            "name": "originUrl",
                            "type": "bytes",
                            "internalType": "bytes"
                        },
                        {
                            "name": "startTime",
                            "type": "uint256",
                            "internalType": "uint256"
                        },
                        {
                            "name": "endTime",
                            "type": "uint256",
                            "internalType": "uint256"
                        },
                        {
                            "name": "sourceAssertions",
                            "type": "bytes32[]",
                            "internalType": "bytes32[]"
                        },
                        {
                            "name": "creator",
                            "type": "address",
                            "internalType": "address"
                        },
                        {
                            "name": "sourceReward",
                            "type": "uint256",
                            "internalType": "uint256"
                        },
                        {
                            "name": "ecpCommentId",
                            "type": "bytes32",
                            "internalType": "bytes32"
                        }
                    ]
                }
            ],
            "stateMutability": "view"
        },
        {
            "type": "function",
            "name": "initializeTopic",
            "inputs": [
                {
                    "name": "_title",
                    "type": "string",
                    "internalType": "string"
                },
                {
                    "name": "_description",
                    "type": "string",
                    "internalType": "string"
                },
                {
                    "name": "_originUrl",
                    "type": "string",
                    "internalType": "string"
                },
                {
                    "name": "duration",
                    "type": "uint256",
                    "internalType": "uint256"
                },
                {
                    "name": "_sourceReward",
                    "type": "uint256",
                    "internalType": "uint256"
                }
            ],
            "outputs": [
                {
                    "name": "topicId",
                    "type": "bytes32",
                    "internalType": "bytes32"
                }
            ],
            "stateMutability": "nonpayable"
        },
        {
            "type": "function",
            "name": "isValidLabel",
            "inputs": [
                {
                    "name": "",
                    "type": "bytes32",
                    "internalType": "bytes32"
                }
            ],
            "outputs": [
                {
                    "name": "",
                    "type": "bool",
                    "internalType": "bool"
                }
            ],
            "stateMutability": "view"
        },
        {
            "type": "function",
            "name": "oo",
            "inputs": [],
            "outputs": [
                {
                    "name": "",
                    "type": "address",
                    "internalType": "contract OptimisticOracleV3Interface"
                }
            ],
            "stateMutability": "view"
        },
        {
            "type": "function",
            "name": "removeLabel",
            "inputs": [
                {
                    "name": "label",
                    "type": "string",
                    "internalType": "string"
                }
            ],
            "outputs": [],
            "stateMutability": "nonpayable"
        },
        {
            "type": "function",
            "name": "rewardToken",
            "inputs": [],
            "outputs": [
                {
                    "name": "",
                    "type": "address",
                    "internalType": "contract IERC20"
                }
            ],
            "stateMutability": "view"
        },
        {
            "type": "function",
            "name": "sources",
            "inputs": [
                {
                    "name": "",
                    "type": "bytes32",
                    "internalType": "bytes32"
                }
            ],
            "outputs": [
                {
                    "name": "asserter",
                    "type": "address",
                    "internalType": "address"
                },
                {
                    "name": "topicId",
                    "type": "bytes32",
                    "internalType": "bytes32"
                },
                {
                    "name": "label",
                    "type": "bytes32",
                    "internalType": "bytes32"
                },
                {
                    "name": "url",
                    "type": "string",
                    "internalType": "string"
                },
                {
                    "name": "description",
                    "type": "bytes",
                    "internalType": "bytes"
                },
                {
                    "name": "status",
                    "type": "uint8",
                    "internalType": "enum SourceAsserter.Status"
                },
                {
                    "name": "createdAt",
                    "type": "uint256",
                    "internalType": "uint256"
                },
                {
                    "name": "disputedAt",
                    "type": "uint256",
                    "internalType": "uint256"
                },
                {
                    "name": "ecpCommentId",
                    "type": "bytes32",
                    "internalType": "bytes32"
                }
            ],
            "stateMutability": "view"
        },
        {
            "type": "function",
            "name": "topics",
            "inputs": [
                {
                    "name": "",
                    "type": "bytes32",
                    "internalType": "bytes32"
                }
            ],
            "outputs": [
                {
                    "name": "title",
                    "type": "bytes",
                    "internalType": "bytes"
                },
                {
                    "name": "description",
                    "type": "bytes",
                    "internalType": "bytes"
                },
                {
                    "name": "originUrl",
                    "type": "bytes",
                    "internalType": "bytes"
                },
                {
                    "name": "startTime",
                    "type": "uint256",
                    "internalType": "uint256"
                },
                {
                    "name": "endTime",
                    "type": "uint256",
                    "internalType": "uint256"
                },
                {
                    "name": "creator",
                    "type": "address",
                    "internalType": "address"
                },
                {
                    "name": "sourceReward",
                    "type": "uint256",
                    "internalType": "uint256"
                },
                {
                    "name": "ecpCommentId",
                    "type": "bytes32",
                    "internalType": "bytes32"
                }
            ],
            "stateMutability": "view"
        },
        {
            "type": "event",
            "name": "SourceResolved",
            "inputs": [
                {
                    "name": "assertionId",
                    "type": "bytes32",
                    "indexed": true,
                    "internalType": "bytes32"
                },
                {
                    "name": "assertedTruthfully",
                    "type": "bool",
                    "indexed": false,
                    "internalType": "bool"
                }
            ],
            "anonymous": false
        },
        {
            "type": "event",
            "name": "TopicInitialized",
            "inputs": [
                {
                    "name": "topicId",
                    "type": "bytes32",
                    "indexed": true,
                    "internalType": "bytes32"
                },
                {
                    "name": "title",
                    "type": "string",
                    "indexed": false,
                    "internalType": "string"
                },
                {
                    "name": "description",
                    "type": "string",
                    "indexed": false,
                    "internalType": "string"
                },
                {
                    "name": "originUrl",
                    "type": "string",
                    "indexed": false,
                    "internalType": "string"
                },
                {
                    "name": "startTime",
                    "type": "uint256",
                    "indexed": false,
                    "internalType": "uint256"
                },
                {
                    "name": "endTime",
                    "type": "uint256",
                    "indexed": false,
                    "internalType": "uint256"
                },
                {
                    "name": "sourceReward",
                    "type": "uint256",
                    "indexed": false,
                    "internalType": "uint256"
                }
            ],
            "anonymous": false
        },
        {
            "type": "event",
            "name": "TopicSourceAdded",
            "inputs": [
                {
                    "name": "topicId",
                    "type": "bytes32",
                    "indexed": true,
                    "internalType": "bytes32"
                },
                {
                    "name": "assertionId",
                    "type": "bytes32",
                    "indexed": true,
                    "internalType": "bytes32"
                }
            ],
            "anonymous": false
        }
    ],
    "bytecode": {
        "object": "0x6101206040523480156200001257600080fd5b506040516200545138038062005451833981810160405281019062000038919062000547565b60016000806040516020016200004e906200062a565b60405160208183030381529060405280519060200120815260200190815260200160002060006101000a81548160ff02191690831515021790555060016000806040516020016200009f9062000691565b60405160208183030381529060405280519060200120815260200190815260200160002060006101000a81548160ff0219169083151502179055506001600080604051602001620000f090620006f8565b60405160208183030381529060405280519060200120815260200190815260200160002060006101000a81548160ff021916908315150217905550600160008060405160200162000141906200075f565b60405160208183030381529060405280519060200120815260200190815260200160002060006101000a81548160ff02191690831515021790555060016000806040516020016200019290620007c6565b60405160208183030381529060405280519060200120815260200190815260200160002060006101000a81548160ff0219169083151502179055508473ffffffffffffffffffffffffffffffffffffffff1660808173ffffffffffffffffffffffffffffffffffffffff1681525050620002116200043560201b60201c565b73ffffffffffffffffffffffffffffffffffffffff16633a3ab672856040518263ffffffff1660e01b81526004016200024b9190620007ee565b602060405180830381865afa15801562000269573d6000803e3d6000fd5b505050506040513d601f19601f820116820180604052508101906200028f919062000848565b620002d1576040517f08c379a0000000000000000000000000000000000000000000000000000000008152600401620002c890620008db565b60405180910390fd5b8373ffffffffffffffffffffffffffffffffffffffff1660a08173ffffffffffffffffffffffffffffffffffffffff16815250508273ffffffffffffffffffffffffffffffffffffffff1660c08173ffffffffffffffffffffffffffffffffffffffff168152505060c05173ffffffffffffffffffffffffffffffffffffffff1663d509b0176040518163ffffffff1660e01b8152600401602060405180830381865afa15801562000387573d6000803e3d6000fd5b505050506040513d601f19601f82011682018060405250810190620003ad919062000938565b610100818152505081600360006101000a81548173ffffffffffffffffffffffffffffffffffffffff021916908373ffffffffffffffffffffffffffffffffffffffff1602179055508073ffffffffffffffffffffffffffffffffffffffff1660e08173ffffffffffffffffffffffffffffffffffffffff16815250505050505050620009ca565b600060805173ffffffffffffffffffffffffffffffffffffffff1663aafd5e407f436f6c6c61746572616c57686974656c697374000000000000000000000000006040518263ffffffff1660e01b81526004016200049491906200097b565b602060405180830381865afa158015620004b2573d6000803e3d6000fd5b505050506040513d601f19601f82011682018060405250810190620004d8919062000998565b905090565b600080fd5b600073ffffffffffffffffffffffffffffffffffffffff82169050919050565b60006200050f82620004e2565b9050919050565b620005218162000502565b81146200052d57600080fd5b50565b600081519050620005418162000516565b92915050565b600080600080600060a08688031215620005665762000565620004dd565b5b6000620005768882890162000530565b9550506020620005898882890162000530565b94505060406200059c8882890162000530565b9350506060620005af8882890162000530565b9250506080620005c28882890162000530565b9150509295509295909350565b600081905092915050565b7f6170690000000000000000000000000000000000000000000000000000000000600082015250565b600062000612600383620005cf565b91506200061f82620005da565b600382019050919050565b6000620006378262000603565b9150819050919050565b7f7477656574000000000000000000000000000000000000000000000000000000600082015250565b600062000679600583620005cf565b9150620006868262000641565b600582019050919050565b60006200069e826200066a565b9150819050919050565b7f6e65777300000000000000000000000000000000000000000000000000000000600082015250565b6000620006e0600483620005cf565b9150620006ed82620006a8565b600482019050919050565b60006200070582620006d1565b9150819050919050565b7f6865617273617900000000000000000000000000000000000000000000000000600082015250565b600062000747600783620005cf565b915062000754826200070f565b600782019050919050565b60006200076c8262000738565b9150819050919050565b7f6f726967696e616c000000000000000000000000000000000000000000000000600082015250565b6000620007ae600883620005cf565b9150620007bb8262000776565b600882019050919050565b6000620007d3826200079f565b9150819050919050565b620007e88162000502565b82525050565b6000602082019050620008056000830184620007dd565b92915050565b60008115159050919050565b62000822816200080b565b81146200082e57600080fd5b50565b600081519050620008428162000817565b92915050565b600060208284031215620008615762000860620004dd565b5b6000620008718482850162000831565b91505092915050565b600082825260208201905092915050565b7f556e737570706f727465642063757272656e6379000000000000000000000000600082015250565b6000620008c36014836200087a565b9150620008d0826200088b565b602082019050919050565b60006020820190508181036000830152620008f681620008b4565b9050919050565b6000819050919050565b6200091281620008fd565b81146200091e57600080fd5b50565b600081519050620009328162000907565b92915050565b600060208284031215620009515762000950620004dd565b5b6000620009618482850162000921565b91505092915050565b6200097581620008fd565b82525050565b60006020820190506200099260008301846200096a565b92915050565b600060208284031215620009b157620009b0620004dd565b5b6000620009c18482850162000530565b91505092915050565b60805160a05160c05160e051610100516149d962000a7860003960008181610d6901526118db015260008181610eab0152818161121e015281816117b40152818161192301528181611b200152612045015260008181610a2c01528181610b8101528181610c8d01528181610d04015281816116c10152611947015260008181610bbd01528181610c4301528181610caf01528181610d4701526118ff015260006113e301526149d96000f3fe608060405234801561001057600080fd5b50600436106101165760003560e01c8063b75d4e24116100a2578063d509b01711610071578063d509b01714610328578063e5a6b10f14610346578063ea3c496114610364578063f1b156b214610382578063f7c618c11461039e57610116565b8063b75d4e24146102a0578063b9a3c84c146102be578063cbea41d1146102dc578063d448a4ec1461030c57610116565b8063396a4bf1116100e9578063396a4bf1146101ba5780635f1d78ae146101ea5780638921a614146102225780638c290ed514610240578063b5c677491461027057610116565b80630f2fbeec1461011b578063122e29001461015257806318163bbe1461016e578063375ff1881461018a575b600080fd5b610135600480360381019061013091906128d9565b6103bc565b6040516101499897969594939291906129ff565b60405180910390f35b61016c60048036038101906101679190612af7565b6105bc565b005b61018860048036038101906101839190612af7565b610613565b005b6101a4600480360381019061019f91906128d9565b61066a565b6040516101b19190612b5f565b60405180910390f35b6101d460048036038101906101cf91906128d9565b61068a565b6040516101e19190612d89565b60405180910390f35b61020460048036038101906101ff91906128d9565b61089f565b60405161021999989796959493929190612e04565b60405180910390f35b61022a610a2a565b6040516102379190612efe565b60405180910390f35b61025a60048036038101906102559190613049565b610a4e565b6040516102679190613104565b60405180910390f35b61028a6004803603810190610285919061314b565b611081565b6040516102979190613104565b60405180910390f35b6102a86113dc565b6040516102b5919061323d565b60405180910390f35b6102c66113e1565b6040516102d39190613279565b60405180910390f35b6102f660048036038101906102f191906128d9565b611405565b604051610303919061341d565b60405180910390f35b610326600480360381019061032191906128d9565b6116bf565b005b6103306118d9565b60405161033d9190613104565b60405180910390f35b61034e6118fd565b60405161035b9190613460565b60405180910390f35b61036c611921565b604051610379919061349c565b60405180910390f35b61039c600480360381019061039791906134e3565b611945565b005b6103a6611cc9565b6040516103b39190613460565b60405180910390f35b60016020528060005260406000206000915090508060000180546103df90613552565b80601f016020809104026020016040519081016040528092919081815260200182805461040b90613552565b80156104585780601f1061042d57610100808354040283529160200191610458565b820191906000526020600020905b81548152906001019060200180831161043b57829003601f168201915b50505050509080600101805461046d90613552565b80601f016020809104026020016040519081016040528092919081815260200182805461049990613552565b80156104e65780601f106104bb576101008083540402835291602001916104e6565b820191906000526020600020905b8154815290600101906020018083116104c957829003601f168201915b5050505050908060020180546104fb90613552565b80601f016020809104026020016040519081016040528092919081815260200182805461052790613552565b80156105745780601f1061054957610100808354040283529160200191610574565b820191906000526020600020905b81548152906001019060200180831161055757829003601f168201915b5050505050908060030154908060040154908060060160009054906101000a900473ffffffffffffffffffffffffffffffffffffffff16908060070154908060080154905088565b600080600084846040516020016105d49291906135b3565b60405160208183030381529060405280519060200120815260200190815260200160002060006101000a81548160ff0219169083151502179055505050565b6001600080848460405160200161062b9291906135b3565b60405160208183030381529060405280519060200120815260200190815260200160002060006101000a81548160ff0219169083151502179055505050565b60006020528060005260406000206000915054906101000a900460ff1681565b610692612729565b60026000838152602001908152602001600020604051806101200160405290816000820160009054906101000a900473ffffffffffffffffffffffffffffffffffffffff1673ffffffffffffffffffffffffffffffffffffffff1673ffffffffffffffffffffffffffffffffffffffff168152602001600182015481526020016002820154815260200160038201805461072b90613552565b80601f016020809104026020016040519081016040528092919081815260200182805461075790613552565b80156107a45780601f10610779576101008083540402835291602001916107a4565b820191906000526020600020905b81548152906001019060200180831161078757829003601f168201915b505050505081526020016004820180546107bd90613552565b80601f01602080910402602001604051908101604052809291908181526020018280546107e990613552565b80156108365780601f1061080b57610100808354040283529160200191610836565b820191906000526020600020905b81548152906001019060200180831161081957829003601f168201915b505050505081526020016005820160009054906101000a900460ff16600381111561086457610863612c37565b5b600381111561087657610875612c37565b5b815260200160068201548152602001600782015481526020016008820154815250509050919050565b60026020528060005260406000206000915090508060000160009054906101000a900473ffffffffffffffffffffffffffffffffffffffff16908060010154908060020154908060030180546108f490613552565b80601f016020809104026020016040519081016040528092919081815260200182805461092090613552565b801561096d5780601f106109425761010080835404028352916020019161096d565b820191906000526020600020905b81548152906001019060200180831161095057829003601f168201915b50505050509080600401805461098290613552565b80601f01602080910402602001604051908101604052809291908181526020018280546109ae90613552565b80156109fb5780601f106109d0576101008083540402835291602001916109fb565b820191906000526020600020905b8154815290600101906020018083116109de57829003601f168201915b5050505050908060050160009054906101000a900460ff16908060060154908060070154908060080154905089565b7f000000000000000000000000000000000000000000000000000000000000000081565b6000806001600087815260200190815260200160002090506000816003015403610aad576040517f08c379a0000000000000000000000000000000000000000000000000000000008152600401610aa490613618565b60405180910390fd5b80600401544210610af3576040517f08c379a0000000000000000000000000000000000000000000000000000000008152600401610aea90613684565b60405180910390fd5b600085604051602001610b0691906136d5565b60405160208183030381529060405280519060200120905060008082815260200190815260200160002060009054906101000a900460ff16610b7d576040517f08c379a0000000000000000000000000000000000000000000000000000000008152600401610b7490613738565b60405180910390fd5b60007f000000000000000000000000000000000000000000000000000000000000000073ffffffffffffffffffffffffffffffffffffffff16634360af3d7f00000000000000000000000000000000000000000000000000000000000000006040518263ffffffff1660e01b8152600401610bf89190613758565b602060405180830381865afa158015610c15573d6000803e3d6000fd5b505050506040513d601f19601f82011682018060405250810190610c399190613788565b9050610c883330837f000000000000000000000000000000000000000000000000000000000000000073ffffffffffffffffffffffffffffffffffffffff16611cef909392919063ffffffff16565b610cf37f0000000000000000000000000000000000000000000000000000000000000000827f000000000000000000000000000000000000000000000000000000000000000073ffffffffffffffffffffffffffffffffffffffff16611d789092919063ffffffff16565b6000610d00898888611ec7565b90507f000000000000000000000000000000000000000000000000000000000000000073ffffffffffffffffffffffffffffffffffffffff16636457c979823330600060787f0000000000000000000000000000000000000000000000000000000000000000897f00000000000000000000000000000000000000000000000000000000000000006000801b6040518a63ffffffff1660e01b8152600401610db0999897969594939291906137b5565b6020604051808303816000875af1158015610dcf573d6000803e3d6000fd5b505050506040513d601f19601f82011682018060405250810190610df3919061385e565b94508360050185908060018154018082558091505060019003906000526020600020016000909190919091505560006040518061012001604052803373ffffffffffffffffffffffffffffffffffffffff1681526020018b815260200185815260200189815260200188815260200160006003811115610e7657610e75612c37565b5b8152602001428152602001600081526020016000801b8152509050600073ffffffffffffffffffffffffffffffffffffffff167f000000000000000000000000000000000000000000000000000000000000000073ffffffffffffffffffffffffffffffffffffffff1614610f59576000610ef033611f08565b604051602001610f009190613913565b604051602081830303815290604052905060008882604051602001610f269291906139cd565b60405160208183030381529060405290506000610f488860080154838d611f6b565b905080846101000181815250505050505b806002600088815260200190815260200160002060008201518160000160006101000a81548173ffffffffffffffffffffffffffffffffffffffff021916908373ffffffffffffffffffffffffffffffffffffffff16021790555060208201518160010155604082015181600201556060820151816003019081610fdd9190613ba9565b506080820151816004019081610ff39190613cd6565b5060a08201518160050160006101000a81548160ff0219169083600381111561101f5761101e612c37565b5b021790555060c0820151816006015560e082015181600701556101008201518160080155905050858a7f8a4b9beed1ca48e865ab1477b14a115e9948ba2f182986dc2c2852c47700fc7a60405160405180910390a35050505050949350505050565b6000808551116110c6576040517f08c379a00000000000000000000000000000000000000000000000000000000081526004016110bd90613df4565b60405180910390fd5b6000429050808787876040516020016110e29493929190613e35565b6040516020818303038152906040528051906020012091506000600160008481526020019081526020016000206003015414611153576040517f08c379a000000000000000000000000000000000000000000000000000000000815260040161114a90613ec3565b60405180910390fd5b600060405180610120016040528089815260200188815260200187815260200183815260200186846111859190613f12565b8152602001600067ffffffffffffffff8111156111a5576111a4612f1e565b5b6040519080825280602002602001820160405280156111d35781602001602082028036833780820191505090505b5081526020013373ffffffffffffffffffffffffffffffffffffffff1681526020018581526020016000801b8152509050600073ffffffffffffffffffffffffffffffffffffffff167f000000000000000000000000000000000000000000000000000000000000000073ffffffffffffffffffffffffffffffffffffffff161461129e576000888860405160200161126d929190613f92565b6040516020818303038152906040529050600061128e6000801b838a611f6b565b9050808361010001818152505050505b806001600085815260200190815260200160002060008201518160000190816112c79190613cd6565b5060208201518160010190816112dd9190613cd6565b5060408201518160020190816112f39190613cd6565b50606082015181600301556080820151816004015560a08201518160050190805190602001906113249291906127a6565b5060c08201518160060160006101000a81548173ffffffffffffffffffffffffffffffffffffffff021916908373ffffffffffffffffffffffffffffffffffffffff16021790555060e082015181600701556101008201518160080155905050827fbb1789258ad1a5a24b3c13eb07b14d3310823b4ef610ab4af1ba9789b6e64734898989868a886113b69190613f12565b8a6040516113c996959493929190613fc1565b60405180910390a2505095945050505050565b607881565b7f000000000000000000000000000000000000000000000000000000000000000081565b61140d6127f3565b600160008381526020019081526020016000206040518061012001604052908160008201805461143c90613552565b80601f016020809104026020016040519081016040528092919081815260200182805461146890613552565b80156114b55780601f1061148a576101008083540402835291602001916114b5565b820191906000526020600020905b81548152906001019060200180831161149857829003601f168201915b505050505081526020016001820180546114ce90613552565b80601f01602080910402602001604051908101604052809291908181526020018280546114fa90613552565b80156115475780601f1061151c57610100808354040283529160200191611547565b820191906000526020600020905b81548152906001019060200180831161152a57829003601f168201915b5050505050815260200160028201805461156090613552565b80601f016020809104026020016040519081016040528092919081815260200182805461158c90613552565b80156115d95780601f106115ae576101008083540402835291602001916115d9565b820191906000526020600020905b8154815290600101906020018083116115bc57829003601f168201915b5050505050815260200160038201548152602001600482015481526020016005820180548060200260200160405190810160405280929190818152602001828054801561164557602002820191906000526020600020905b815481526020019060010190808311611631575b505050505081526020016006820160009054906101000a900473ffffffffffffffffffffffffffffffffffffffff1673ffffffffffffffffffffffffffffffffffffffff1673ffffffffffffffffffffffffffffffffffffffff168152602001600782015481526020016008820154815250509050919050565b7f000000000000000000000000000000000000000000000000000000000000000073ffffffffffffffffffffffffffffffffffffffff163373ffffffffffffffffffffffffffffffffffffffff161461174d576040517f08c379a000000000000000000000000000000000000000000000000000000000815260040161174490614083565b60405180910390fd5b600060026000838152602001908152602001600020905060028160050160006101000a81548160ff0219169083600381111561178c5761178b612c37565b5b0217905550428160070181905550600073ffffffffffffffffffffffffffffffffffffffff167f000000000000000000000000000000000000000000000000000000000000000073ffffffffffffffffffffffffffffffffffffffff16141580156117fe57506000801b816008015414155b156118d5576118d381600801546040518060400160405280600881526020017f446973707574656400000000000000000000000000000000000000000000000081525083600301805461185090613552565b80601f016020809104026020016040519081016040528092919081815260200182805461187c90613552565b80156118c95780601f1061189e576101008083540402835291602001916118c9565b820191906000526020600020905b8154815290600101906020018083116118ac57829003601f168201915b5050505050611f6b565b505b5050565b7f000000000000000000000000000000000000000000000000000000000000000081565b7f000000000000000000000000000000000000000000000000000000000000000081565b7f000000000000000000000000000000000000000000000000000000000000000081565b7f000000000000000000000000000000000000000000000000000000000000000073ffffffffffffffffffffffffffffffffffffffff163373ffffffffffffffffffffffffffffffffffffffff16146119d3576040517f08c379a00000000000000000000000000000000000000000000000000000000081526004016119ca90614083565b60405180910390fd5b60006002600084815260200190815260200160002090506000600160008360010154815260200190815260200160002090508215611ad85760018260050160006101000a81548160ff02191690836003811115611a3357611a32612c37565b5b0217905550611ad38160060160009054906101000a900473ffffffffffffffffffffffffffffffffffffffff168360000160009054906101000a900473ffffffffffffffffffffffffffffffffffffffff168360070154600360009054906101000a900473ffffffffffffffffffffffffffffffffffffffff1673ffffffffffffffffffffffffffffffffffffffff16611cef909392919063ffffffff16565b611b06565b60038260050160006101000a81548160ff02191690836003811115611b0057611aff612c37565b5b02179055505b600073ffffffffffffffffffffffffffffffffffffffff167f000000000000000000000000000000000000000000000000000000000000000073ffffffffffffffffffffffffffffffffffffffff1614158015611b6a57506000801b826008015414155b15611c8b5760608315611bb4576040518060400160405280600f81526020017f417070726f76656420627920554d4100000000000000000000000000000000008152509050611bed565b6040518060400160405280600f81526020017f52656a656374656420627920554d41000000000000000000000000000000000081525090505b611c88836008015482856003018054611c0590613552565b80601f0160208091040260200160405190810160405280929190818152602001828054611c3190613552565b8015611c7e5780601f10611c5357610100808354040283529160200191611c7e565b820191906000526020600020905b815481529060010190602001808311611c6157829003601f168201915b5050505050611f6b565b50505b837f3decca44a8ef743a8562881c76218a5b71918490130b2e17e19a52371669275284604051611cbb9190612b5f565b60405180910390a250505050565b600360009054906101000a900473ffffffffffffffffffffffffffffffffffffffff1681565b611d72846323b872dd60e01b858585604051602401611d10939291906140a3565b604051602081830303815290604052907bffffffffffffffffffffffffffffffffffffffffffffffffffffffff19166020820180517bffffffffffffffffffffffffffffffffffffffffffffffffffffffff83818316178352505050506120f9565b50505050565b6000811480611e02575060008373ffffffffffffffffffffffffffffffffffffffff1663dd62ed3e30856040518363ffffffff1660e01b8152600401611dbf9291906140da565b602060405180830381865afa158015611ddc573d6000803e3d6000fd5b505050506040513d601f19601f82011682018060405250810190611e009190613788565b145b611e41576040517f08c379a0000000000000000000000000000000000000000000000000000000008152600401611e3890614175565b60405180910390fd5b611ec28363095ea7b360e01b8484604051602401611e60929190614195565b604051602081830303815290604052907bffffffffffffffffffffffffffffffffffffffffffffffffffffffff19166020820180517bffffffffffffffffffffffffffffffffffffffffffffffffffffffff83818316178352505050506120f9565b505050565b6060611ed2426121c0565b611edb85612348565b8484604051602001611ef094939291906142a2565b60405160208183030381529060405290509392505050565b6060611f2960808360601b6bffffffffffffffffffffffff1916901c612387565b611f448360601b6bffffffffffffffffffffffff1916612387565b604051602001611f5592919061437a565b6040516020818303038152906040529050919050565b6000806040518061012001604052803073ffffffffffffffffffffffffffffffffffffffff1681526020013073ffffffffffffffffffffffffffffffffffffffff168152602001600081526020016201518042611fc89190613f12565b8152602001868152602001600060ff168152602001858152602001600067ffffffffffffffff811115611ffe57611ffd612f1e565b5b60405190808252806020026020018201604052801561203757816020015b612024612858565b81526020019060019003908161201c5790505b5081526020018481525090507f000000000000000000000000000000000000000000000000000000000000000073ffffffffffffffffffffffffffffffffffffffff1662f0a11c82604051806020016040528060008152506040518363ffffffff1660e01b81526004016120ac92919061459b565b6020604051808303816000875af11580156120cb573d6000803e3d6000fd5b505050506040513d601f19601f820116820180604052508101906120ef919061385e565b9150509392505050565b600061215b826040518060400160405280602081526020017f5361666545524332303a206c6f772d6c6576656c2063616c6c206661696c65648152508573ffffffffffffffffffffffffffffffffffffffff1661255c9092919063ffffffff16565b90506000815111156121bb578080602001905181019061217b91906145e7565b6121ba576040517f08c379a00000000000000000000000000000000000000000000000000000000081526004016121b190614686565b60405180910390fd5b5b505050565b606060008203612207576040518060400160405280600181526020017f30000000000000000000000000000000000000000000000000000000000000008152509050612343565b600082905060005b60008214612239578080612222906146a6565b915050600a82612232919061471d565b915061220f565b60008167ffffffffffffffff81111561225557612254612f1e565b5b6040519080825280601f01601f1916602001820160405280156122875781602001600182028036833780820191505090505b50905060008290505b6000861461233b576001816122a5919061474e565b90506000600a80886122b7919061471d565b6122c19190614782565b876122cc919061474e565b60306122d891906147dc565b905060008160f81b9050808484815181106122f6576122f5614811565b5b60200101907effffffffffffffffffffffffffffffffffffffffffffffffffffffffffffff1916908160001a905350600a88612332919061471d565b97505050612290565b819450505050505b919050565b6060612357608083901c612387565b61236083612387565b604051602001612371929190614840565b6040516020818303038152906040529050919050565b6000808260001c90506fffffffffffffffffffffffffffffffff8116905077ffffffffffffffff0000000000000000ffffffffffffffff68010000000000000000820282171690507bffffffff00000000ffffffff00000000ffffffff00000000ffffffff640100000000820282171690507dffff0000ffff0000ffff0000ffff0000ffff0000ffff0000ffff0000ffff62010000820282171690507eff00ff00ff00ff00ff00ff00ff00ff00ff00ff00ff00ff00ff00ff00ff00ff610100820282171690507f0f0f0f0f0f0f0f0f0f0f0f0f0f0f0f0f0f0f0f0f0f0f0f0f0f0f0f0f0f0f0f0f601082028217169050600060087f08080808080808080808080808080808080808080808080808080808080808088316816124ac576124ab6146ee565b5b049050600060047f04040404040404040404040404040404040404040404040404040404040404048416816124e4576124e36146ee565b5b049050600060027f020202020202020202020202020202020202020202020202020202020202020285168161251c5761251b6146ee565b5b0490507f3030303030303030303030303030303030303030303030303030303030303030602782841785160285010193508360001b945050505050919050565b606061256b8484600085612574565b90509392505050565b6060824710156125b9576040517f08c379a00000000000000000000000000000000000000000000000000000000081526004016125b0906148de565b60405180910390fd5b6000808673ffffffffffffffffffffffffffffffffffffffff1685876040516125e291906148fe565b60006040518083038185875af1925050503d806000811461261f576040519150601f19603f3d011682016040523d82523d6000602084013e612624565b606091505b509150915061263587838387612641565b92505050949350505050565b606083156126a357600083510361269b5761265b856126b6565b61269a576040517f08c379a000000000000000000000000000000000000000000000000000000000815260040161269190614961565b60405180910390fd5b5b8290506126ae565b6126ad83836126d9565b5b949350505050565b6000808273ffffffffffffffffffffffffffffffffffffffff163b119050919050565b6000825111156126ec5781518083602001fd5b806040517f08c379a00000000000000000000000000000000000000000000000000000000081526004016127209190614981565b60405180910390fd5b604051806101200160405280600073ffffffffffffffffffffffffffffffffffffffff168152602001600080191681526020016000801916815260200160608152602001606081526020016000600381111561278857612787612c37565b5b81526020016000815260200160008152602001600080191681525090565b8280548282559060005260206000209081019282156127e2579160200282015b828111156127e15782518255916020019190600101906127c6565b5b5090506127ef9190612872565b5090565b604051806101200160405280606081526020016060815260200160608152602001600081526020016000815260200160608152602001600073ffffffffffffffffffffffffffffffffffffffff16815260200160008152602001600080191681525090565b604051806040016040528060608152602001606081525090565b5b8082111561288b576000816000905550600101612873565b5090565b6000604051905090565b600080fd5b600080fd5b6000819050919050565b6128b6816128a3565b81146128c157600080fd5b50565b6000813590506128d3816128ad565b92915050565b6000602082840312156128ef576128ee612899565b5b60006128fd848285016128c4565b91505092915050565b600081519050919050565b600082825260208201905092915050565b60005b83811015612940578082015181840152602081019050612925565b60008484015250505050565b6000601f19601f8301169050919050565b600061296882612906565b6129728185612911565b9350612982818560208601612922565b61298b8161294c565b840191505092915050565b6000819050919050565b6129a981612996565b82525050565b600073ffffffffffffffffffffffffffffffffffffffff82169050919050565b60006129da826129af565b9050919050565b6129ea816129cf565b82525050565b6129f9816128a3565b82525050565b6000610100820190508181036000830152612a1a818b61295d565b90508181036020830152612a2e818a61295d565b90508181036040830152612a42818961295d565b9050612a5160608301886129a0565b612a5e60808301876129a0565b612a6b60a08301866129e1565b612a7860c08301856129a0565b612a8560e08301846129f0565b9998505050505050505050565b600080fd5b600080fd5b600080fd5b60008083601f840112612ab757612ab6612a92565b5b8235905067ffffffffffffffff811115612ad457612ad3612a97565b5b602083019150836001820283011115612af057612aef612a9c565b5b9250929050565b60008060208385031215612b0e57612b0d612899565b5b600083013567ffffffffffffffff811115612b2c57612b2b61289e565b5b612b3885828601612aa1565b92509250509250929050565b60008115159050919050565b612b5981612b44565b82525050565b6000602082019050612b746000830184612b50565b92915050565b612b83816129cf565b82525050565b612b92816128a3565b82525050565b600081519050919050565b600082825260208201905092915050565b6000612bbf82612b98565b612bc98185612ba3565b9350612bd9818560208601612922565b612be28161294c565b840191505092915050565b600082825260208201905092915050565b6000612c0982612906565b612c138185612bed565b9350612c23818560208601612922565b612c2c8161294c565b840191505092915050565b7f4e487b7100000000000000000000000000000000000000000000000000000000600052602160045260246000fd5b60048110612c7757612c76612c37565b5b50565b6000819050612c8882612c66565b919050565b6000612c9882612c7a565b9050919050565b612ca881612c8d565b82525050565b612cb781612996565b82525050565b600061012083016000830151612cd66000860182612b7a565b506020830151612ce96020860182612b89565b506040830151612cfc6040860182612b89565b5060608301518482036060860152612d148282612bb4565b91505060808301518482036080860152612d2e8282612bfe565b91505060a0830151612d4360a0860182612c9f565b5060c0830151612d5660c0860182612cae565b5060e0830151612d6960e0860182612cae565b50610100830151612d7e610100860182612b89565b508091505092915050565b60006020820190508181036000830152612da38184612cbd565b905092915050565b600082825260208201905092915050565b6000612dc782612b98565b612dd18185612dab565b9350612de1818560208601612922565b612dea8161294c565b840191505092915050565b612dfe81612c8d565b82525050565b600061012082019050612e1a600083018c6129e1565b612e27602083018b6129f0565b612e34604083018a6129f0565b8181036060830152612e468189612dbc565b90508181036080830152612e5a818861295d565b9050612e6960a0830187612df5565b612e7660c08301866129a0565b612e8360e08301856129a0565b612e916101008301846129f0565b9a9950505050505050505050565b6000819050919050565b6000612ec4612ebf612eba846129af565b612e9f565b6129af565b9050919050565b6000612ed682612ea9565b9050919050565b6000612ee882612ecb565b9050919050565b612ef881612edd565b82525050565b6000602082019050612f136000830184612eef565b92915050565b600080fd5b7f4e487b7100000000000000000000000000000000000000000000000000000000600052604160045260246000fd5b612f568261294c565b810181811067ffffffffffffffff82111715612f7557612f74612f1e565b5b80604052505050565b6000612f8861288f565b9050612f948282612f4d565b919050565b600067ffffffffffffffff821115612fb457612fb3612f1e565b5b612fbd8261294c565b9050602081019050919050565b82818337600083830152505050565b6000612fec612fe784612f99565b612f7e565b90508281526020810184848401111561300857613007612f19565b5b613013848285612fca565b509392505050565b600082601f8301126130305761302f612a92565b5b8135613040848260208601612fd9565b91505092915050565b6000806000806080858703121561306357613062612899565b5b6000613071878288016128c4565b945050602085013567ffffffffffffffff8111156130925761309161289e565b5b61309e8782880161301b565b935050604085013567ffffffffffffffff8111156130bf576130be61289e565b5b6130cb8782880161301b565b925050606085013567ffffffffffffffff8111156130ec576130eb61289e565b5b6130f88782880161301b565b91505092959194509250565b600060208201905061311960008301846129f0565b92915050565b61312881612996565b811461313357600080fd5b50565b6000813590506131458161311f565b92915050565b600080600080600060a0868803121561316757613166612899565b5b600086013567ffffffffffffffff8111156131855761318461289e565b5b6131918882890161301b565b955050602086013567ffffffffffffffff8111156131b2576131b161289e565b5b6131be8882890161301b565b945050604086013567ffffffffffffffff8111156131df576131de61289e565b5b6131eb8882890161301b565b93505060606131fc88828901613136565b925050608061320d88828901613136565b9150509295509295909350565b600067ffffffffffffffff82169050919050565b6132378161321a565b82525050565b6000602082019050613252600083018461322e565b92915050565b600061326382612ecb565b9050919050565b61327381613258565b82525050565b600060208201905061328e600083018461326a565b92915050565b600081519050919050565b600082825260208201905092915050565b6000819050602082019050919050565b60006132cc8383612b89565b60208301905092915050565b6000602082019050919050565b60006132f082613294565b6132fa818561329f565b9350613305836132b0565b8060005b8381101561333657815161331d88826132c0565b9750613328836132d8565b925050600181019050613309565b5085935050505092915050565b60006101208301600083015184820360008601526133618282612bfe565b9150506020830151848203602086015261337b8282612bfe565b915050604083015184820360408601526133958282612bfe565b91505060608301516133aa6060860182612cae565b5060808301516133bd6080860182612cae565b5060a083015184820360a08601526133d582826132e5565b91505060c08301516133ea60c0860182612b7a565b5060e08301516133fd60e0860182612cae565b50610100830151613412610100860182612b89565b508091505092915050565b600060208201905081810360008301526134378184613343565b905092915050565b600061344a82612ecb565b9050919050565b61345a8161343f565b82525050565b60006020820190506134756000830184613451565b92915050565b600061348682612ecb565b9050919050565b6134968161347b565b82525050565b60006020820190506134b1600083018461348d565b92915050565b6134c081612b44565b81146134cb57600080fd5b50565b6000813590506134dd816134b7565b92915050565b600080604083850312156134fa576134f9612899565b5b6000613508858286016128c4565b9250506020613519858286016134ce565b9150509250929050565b7f4e487b7100000000000000000000000000000000000000000000000000000000600052602260045260246000fd5b6000600282049050600182168061356a57607f821691505b60208210810361357d5761357c613523565b5b50919050565b600081905092915050565b600061359a8385613583565b93506135a7838584612fca565b82840190509392505050565b60006135c082848661358e565b91508190509392505050565b7f546f70696320646f6573206e6f74206578697374000000000000000000000000600082015250565b6000613602601483612dab565b915061360d826135cc565b602082019050919050565b60006020820190508181036000830152613631816135f5565b9050919050565b7f546f706963206578706972656400000000000000000000000000000000000000600082015250565b600061366e600d83612dab565b915061367982613638565b602082019050919050565b6000602082019050818103600083015261369d81613661565b9050919050565b60006136af82612b98565b6136b98185613583565b93506136c9818560208601612922565b80840191505092915050565b60006136e182846136a4565b915081905092915050565b7f496e76616c6964206c6162656c00000000000000000000000000000000000000600082015250565b6000613722600d83612dab565b915061372d826136ec565b602082019050919050565b6000602082019050818103600083015261375181613715565b9050919050565b600060208201905061376d60008301846129e1565b92915050565b6000815190506137828161311f565b92915050565b60006020828403121561379e5761379d612899565b5b60006137ac84828501613773565b91505092915050565b60006101208201905081810360008301526137d0818c61295d565b90506137df602083018b6129e1565b6137ec604083018a6129e1565b6137f960608301896129e1565b613806608083018861322e565b61381360a0830187613451565b61382060c08301866129a0565b61382d60e08301856129f0565b61383b6101008301846129f0565b9a9950505050505050505050565b600081519050613858816128ad565b92915050565b60006020828403121561387457613873612899565b5b600061388284828501613849565b91505092915050565b7f3078000000000000000000000000000000000000000000000000000000000000600082015250565b60006138c1600283613583565b91506138cc8261388b565b600282019050919050565b600081905092915050565b60006138ed82612906565b6138f781856138d7565b9350613907818560208601612922565b80840191505092915050565b600061391e826138b4565b915061392a82846138e2565b915081905092915050565b7f202841737365727465642062793a200000000000000000000000000000000000600082015250565b600061396b600f83613583565b915061397682613935565b600f82019050919050565b7f2900000000000000000000000000000000000000000000000000000000000000600082015250565b60006139b7600183613583565b91506139c282613981565b600182019050919050565b60006139d982856136a4565b91506139e48261395e565b91506139f082846136a4565b91506139fb826139aa565b91508190509392505050565b60008190508160005260206000209050919050565b60006020601f8301049050919050565b600082821b905092915050565b600060088302613a697fffffffffffffffffffffffffffffffffffffffffffffffffffffffffffffffff82613a2c565b613a738683613a2c565b95508019841693508086168417925050509392505050565b6000613aa6613aa1613a9c84612996565b612e9f565b612996565b9050919050565b6000819050919050565b613ac083613a8b565b613ad4613acc82613aad565b848454613a39565b825550505050565b600090565b613ae9613adc565b613af4818484613ab7565b505050565b5b81811015613b1857613b0d600082613ae1565b600181019050613afa565b5050565b601f821115613b5d57613b2e81613a07565b613b3784613a1c565b81016020851015613b46578190505b613b5a613b5285613a1c565b830182613af9565b50505b505050565b600082821c905092915050565b6000613b8060001984600802613b62565b1980831691505092915050565b6000613b998383613b6f565b9150826002028217905092915050565b613bb282612b98565b67ffffffffffffffff811115613bcb57613bca612f1e565b5b613bd58254613552565b613be0828285613b1c565b600060209050601f831160018114613c135760008415613c01578287015190505b613c0b8582613b8d565b865550613c73565b601f198416613c2186613a07565b60005b82811015613c4957848901518255600182019150602085019450602081019050613c24565b86831015613c665784890151613c62601f891682613b6f565b8355505b6001600288020188555050505b505050505050565b60008190508160005260206000209050919050565b601f821115613cd157613ca281613c7b565b613cab84613a1c565b81016020851015613cba578190505b613cce613cc685613a1c565b830182613af9565b50505b505050565b613cdf82612906565b67ffffffffffffffff811115613cf857613cf7612f1e565b5b613d028254613552565b613d0d828285613c90565b600060209050601f831160018114613d405760008415613d2e578287015190505b613d388582613b8d565b865550613da0565b601f198416613d4e86613c7b565b60005b82811015613d7657848901518255600182019150602085019450602081019050613d51565b86831015613d935784890151613d8f601f891682613b6f565b8355505b6001600288020188555050505b505050505050565b7f456d707479206465736372697074696f6e000000000000000000000000000000600082015250565b6000613dde601183612dab565b9150613de982613da8565b602082019050919050565b60006020820190508181036000830152613e0d81613dd1565b9050919050565b6000819050919050565b613e2f613e2a82612996565b613e14565b82525050565b6000613e418287613e1e565b602082019150613e5182866136a4565b9150613e5d82856136a4565b9150613e6982846136a4565b915081905095945050505050565b7f546f70696320616c726561647920657869737473000000000000000000000000600082015250565b6000613ead601483612dab565b9150613eb882613e77565b602082019050919050565b60006020820190508181036000830152613edc81613ea0565b9050919050565b7f4e487b7100000000000000000000000000000000000000000000000000000000600052601160045260246000fd5b6000613f1d82612996565b9150613f2883612996565b9250828201905080821115613f4057613f3f613ee3565b5b92915050565b7f202d200000000000000000000000000000000000000000000000000000000000600082015250565b6000613f7c600383613583565b9150613f8782613f46565b600382019050919050565b6000613f9e82856136a4565b9150613fa982613f6f565b9150613fb582846136a4565b91508190509392505050565b600060c0820190508181036000830152613fdb8189612dbc565b90508181036020830152613fef8188612dbc565b905081810360408301526140038187612dbc565b905061401260608301866129a0565b61401f60808301856129a0565b61402c60a08301846129a0565b979650505050505050565b7f4e6f7420617574686f72697a6564000000000000000000000000000000000000600082015250565b600061406d600e83612dab565b915061407882614037565b602082019050919050565b6000602082019050818103600083015261409c81614060565b9050919050565b60006060820190506140b860008301866129e1565b6140c560208301856129e1565b6140d260408301846129a0565b949350505050565b60006040820190506140ef60008301856129e1565b6140fc60208301846129e1565b9392505050565b7f5361666545524332303a20617070726f76652066726f6d206e6f6e2d7a65726f60008201527f20746f206e6f6e2d7a65726f20616c6c6f77616e636500000000000000000000602082015250565b600061415f603683612dab565b915061416a82614103565b604082019050919050565b6000602082019050818103600083015261418e81614152565b9050919050565b60006040820190506141aa60008301856129e1565b6141b760208301846129a0565b9392505050565b7f4173206f662074696d657374616d702000000000000000000000000000000000600082015250565b60006141f4601083613583565b91506141ff826141be565b601082019050919050565b7f2c20736f7572636520666f7220746f7069632030780000000000000000000000600082015250565b6000614240601583613583565b915061424b8261420a565b601582019050919050565b7f3a20000000000000000000000000000000000000000000000000000000000000600082015250565b600061428c600283613583565b915061429782614256565b600282019050919050565b60006142ad826141e7565b91506142b982876138e2565b91506142c482614233565b91506142d082866138e2565b91506142db8261427f565b91506142e782856136a4565b91506142f282613f6f565b91506142fe82846136a4565b915081905095945050505050565b6000819050919050565b614327614322826128a3565b61430c565b82525050565b60007fffffffffffffffff00000000000000000000000000000000000000000000000082169050919050565b6000819050919050565b61437461436f8261432d565b614359565b82525050565b60006143868285614316565b6020820191506143968284614363565b6008820191508190509392505050565b600060ff82169050919050565b6143bc816143a6565b82525050565b600081519050919050565b600082825260208201905092915050565b6000819050602082019050919050565b6000604083016000830151848203600086015261440b8282612bb4565b915050602083015184820360208601526144258282612bb4565b9150508091505092915050565b600061443e83836143ee565b905092915050565b6000602082019050919050565b600061445e826143c2565b61446881856143cd565b93508360208202850161447a856143de565b8060005b858110156144b657848403895281516144978582614432565b94506144a283614446565b925060208a0199505060018101905061447e565b50829750879550505050505092915050565b6000610120830160008301516144e16000860182612b7a565b5060208301516144f46020860182612b7a565b5060408301516145076040860182612cae565b50606083015161451a6060860182612cae565b50608083015161452d6080860182612b89565b5060a083015161454060a08601826143b3565b5060c083015184820360c08601526145588282612bb4565b91505060e083015184820360e08601526145728282614453565b91505061010083015184820361010086015261458e8282612bb4565b9150508091505092915050565b600060408201905081810360008301526145b581856144c8565b905081810360208301526145c9818461295d565b90509392505050565b6000815190506145e1816134b7565b92915050565b6000602082840312156145fd576145fc612899565b5b600061460b848285016145d2565b91505092915050565b7f5361666545524332303a204552433230206f7065726174696f6e20646964206e60008201527f6f74207375636365656400000000000000000000000000000000000000000000602082015250565b6000614670602a83612dab565b915061467b82614614565b604082019050919050565b6000602082019050818103600083015261469f81614663565b9050919050565b60006146b182612996565b91507fffffffffffffffffffffffffffffffffffffffffffffffffffffffffffffffff82036146e3576146e2613ee3565b5b600182019050919050565b7f4e487b7100000000000000000000000000000000000000000000000000000000600052601260045260246000fd5b600061472882612996565b915061473383612996565b925082614743576147426146ee565b5b828204905092915050565b600061475982612996565b915061476483612996565b925082820390508181111561477c5761477b613ee3565b5b92915050565b600061478d82612996565b915061479883612996565b9250817fffffffffffffffffffffffffffffffffffffffffffffffffffffffffffffffff04831182151516156147d1576147d0613ee3565b5b828202905092915050565b60006147e7826143a6565b91506147f2836143a6565b9250828201905060ff81111561480b5761480a613ee3565b5b92915050565b7f4e487b7100000000000000000000000000000000000000000000000000000000600052603260045260246000fd5b600061484c8285614316565b60208201915061485c8284614316565b6020820191508190509392505050565b7f416464726573733a20696e73756666696369656e742062616c616e636520666f60008201527f722063616c6c0000000000000000000000000000000000000000000000000000602082015250565b60006148c8602683612dab565b91506148d38261486c565b604082019050919050565b600060208201905081810360008301526148f7816148bb565b9050919050565b600061490a82846138e2565b915081905092915050565b7f416464726573733a2063616c6c20746f206e6f6e2d636f6e7472616374000000600082015250565b600061494b601d83612dab565b915061495682614915565b602082019050919050565b6000602082019050818103600083015261497a8161493e565b9050919050565b6000602082019050818103600083015261499b8184612dbc565b90509291505056fea26469706673582212209d5935f601b8a4dcd4bd098e5b746e7afb9a2b26b7a0dd70b05e8726a74a26e164736f6c63430008100033",
        "linkReferences": {}
    },
    "methodIdentifiers": {
        "addLabel(string)": "18163bbe",
        "assertSource(bytes32,string,string,string)": "8c290ed5",
        "assertionDisputedCallback(bytes32)": "d448a4ec",
        "assertionLiveness()": "b75d4e24",
        "assertionResolvedCallback(bytes32,bool)": "f1b156b2",
        "commentManager()": "ea3c4961",
        "currency()": "e5a6b10f",
        "defaultIdentifier()": "d509b017",
        "finder()": "b9a3c84c",
        "getSource(bytes32)": "396a4bf1",
        "getTopic(bytes32)": "cbea41d1",
        "initializeTopic(string,string,string,uint256,uint256)": "b5c67749",
        "isValidLabel(bytes32)": "375ff188",
        "oo()": "8921a614",
        "removeLabel(string)": "122e2900",
        "rewardToken()": "f7c618c1",
        "sources(bytes32)": "5f1d78ae",
        "topics(bytes32)": "0f2fbeec"
    },
    "id": 29
}