{
    "abi": [
        {
            "type": "constructor",
            "inputs": [
                {
                    "name": "_finder",
                    "type": "address",
                    "internalType": "address"
                },
                {
                    "name": "_currency",
                    "type": "address",
                    "internalType": "address"
                },
                {
                    "name": "_optimisticOracleV3",
                    "type": "address",
                    "internalType": "address"
                },
                {
                    "name": "_rewardToken",
                    "type": "address",
                    "internalType": "address"
                },
                {
                    "name": "_commentManager",
                    "type": "address",
                    "internalType": "address"
                }
            ],
            "stateMutability": "nonpayable"
        },
        {
            "type": "function",
            "name": "addLabel",
            "inputs": [
                {
                    "name": "label",
                    "type": "string",
                    "internalType": "string"
                }
            ],
            "outputs": [],
            "stateMutability": "nonpayable"
        },
        {
            "type": "function",
            "name": "assertSource",
            "inputs": [
                {
                    "name": "topicId",
                    "type": "bytes32",
                    "internalType": "bytes32"
                },
                {
                    "name": "label",
                    "type": "string",
                    "internalType": "string"
                },
                {
                    "name": "url",
                    "type": "string",
                    "internalType": "string"
                },
                {
                    "name": "sourceDesc",
                    "type": "string",
                    "internalType": "string"
                }
            ],
            "outputs": [
                {
                    "name": "assertionId",
                    "type": "bytes32",
                    "internalType": "bytes32"
                }
            ],
            "stateMutability": "nonpayable"
        },
        {
            "type": "function",
            "name": "assertionDisputedCallback",
            "inputs": [
                {
                    "name": "assertionId",
                    "type": "bytes32",
                    "internalType": "bytes32"
                }
            ],
            "outputs": [],
            "stateMutability": "nonpayable"
        },
        {
            "type": "function",
            "name": "assertionLiveness",
            "inputs": [],
            "outputs": [
                {
                    "name": "",
                    "type": "uint64",
                    "internalType": "uint64"
                }
            ],
            "stateMutability": "view"
        },
        {
            "type": "function",
            "name": "assertionResolvedCallback",
            "inputs": [
                {
                    "name": "assertionId",
                    "type": "bytes32",
                    "internalType": "bytes32"
                },
                {
                    "name": "assertedTruthfully",
                    "type": "bool",
                    "internalType": "bool"
                }
            ],
            "outputs": [],
            "stateMutability": "nonpayable"
        },
        {
            "type": "function",
            "name": "commentManager",
            "inputs": [],
            "outputs": [
                {
                    "name": "",
                    "type": "address",
                    "internalType": "contract ICommentManager"
                }
            ],
            "stateMutability": "view"
        },
        {
            "type": "function",
            "name": "currency",
            "inputs": [],
            "outputs": [
                {
                    "name": "",
                    "type": "address",
                    "internalType": "contract IERC20"
                }
            ],
            "stateMutability": "view"
        },
        {
            "type": "function",
            "name": "defaultIdentifier",
            "inputs": [],
            "outputs": [
                {
                    "name": "",
                    "type": "bytes32",
                    "internalType": "bytes32"
                }
            ],
            "stateMutability": "view"
        },
        {
            "type": "function",
            "name": "ecpChannelId",
            "inputs": [],
            "outputs": [
                {
                    "name": "",
                    "type": "uint256",
                    "internalType": "uint256"
                }
            ],
            "stateMutability": "view"
        },
        {
            "type": "function",
            "name": "finder",
            "inputs": [],
            "outputs": [
                {
                    "name": "",
                    "type": "address",
                    "internalType": "contract FinderInterface"
                }
            ],
            "stateMutability": "view"
        },
        {
            "type": "function",
            "name": "getSource",
            "inputs": [
                {
                    "name": "assertionId",
                    "type": "bytes32",
                    "internalType": "bytes32"
                }
            ],
            "outputs": [
                {
                    "name": "",
                    "type": "tuple",
                    "internalType": "struct SourceAsserter.Source",
                    "components": [
                        {
                            "name": "asserter",
                            "type": "address",
                            "internalType": "address"
                        },
                        {
                            "name": "topicId",
                            "type": "bytes32",
                            "internalType": "bytes32"
                        },
                        {
                            "name": "label",
                            "type": "bytes32",
                            "internalType": "bytes32"
                        },
                        {
                            "name": "url",
                            "type": "string",
                            "internalType": "string"
                        },
                        {
                            "name": "description",
                            "type": "bytes",
                            "internalType": "bytes"
                        },
                        {
                            "name": "status",
                            "type": "uint8",
                            "internalType": "enum SourceAsserter.Status"
                        },
                        {
                            "name": "createdAt",
                            "type": "uint256",
                            "internalType": "uint256"
                        },
                        {
                            "name": "disputedAt",
                            "type": "uint256",
                            "internalType": "uint256"
                        },
                        {
                            "name": "ecpCommentId",
                            "type": "bytes32",
                            "internalType": "bytes32"
                        }
                    ]
                }
            ],
            "stateMutability": "view"
        },
        {
            "type": "function",
            "name": "getTopic",
            "inputs": [
                {
                    "name": "topicId",
                    "type": "bytes32",
                    "internalType": "bytes32"
                }
            ],
            "outputs": [
                {
                    "name": "",
                    "type": "tuple",
                    "internalType": "struct SourceAsserter.Topic",
                    "components": [
                        {
                            "name": "title",
                            "type": "bytes",
                            "internalType": "bytes"
                        },
                        {
                            "name": "description",
                            "type": "bytes",
                            "internalType": "bytes"
                        },
                        {
                            "name": "originUrl",
                            "type": "bytes",
                            "internalType": "bytes"
                        },
                        {
                            "name": "startTime",
                            "type": "uint256",
                            "internalType": "uint256"
                        },
                        {
                            "name": "endTime",
                            "type": "uint256",
                            "internalType": "uint256"
                        },
                        {
                            "name": "sourceAssertions",
                            "type": "bytes32[]",
                            "internalType": "bytes32[]"
                        },
                        {
                            "name": "creator",
                            "type": "address",
                            "internalType": "address"
                        },
                        {
                            "name": "sourceReward",
                            "type": "uint256",
                            "internalType": "uint256"
                        },
                        {
                            "name": "ecpCommentId",
                            "type": "bytes32",
                            "internalType": "bytes32"
                        }
                    ]
                }
            ],
            "stateMutability": "view"
        },
        {
            "type": "function",
            "name": "initializeTopic",
            "inputs": [
                {
                    "name": "_title",
                    "type": "string",
                    "internalType": "string"
                },
                {
                    "name": "_description",
                    "type": "string",
                    "internalType": "string"
                },
                {
                    "name": "_originUrl",
                    "type": "string",
                    "internalType": "string"
                },
                {
                    "name": "duration",
                    "type": "uint256",
                    "internalType": "uint256"
                },
                {
                    "name": "_sourceReward",
                    "type": "uint256",
                    "internalType": "uint256"
                }
            ],
            "outputs": [
                {
                    "name": "topicId",
                    "type": "bytes32",
                    "internalType": "bytes32"
                }
            ],
            "stateMutability": "nonpayable"
        },
        {
            "type": "function",
            "name": "isValidLabel",
            "inputs": [
                {
                    "name": "",
                    "type": "bytes32",
                    "internalType": "bytes32"
                }
            ],
            "outputs": [
                {
                    "name": "",
                    "type": "bool",
                    "internalType": "bool"
                }
            ],
            "stateMutability": "view"
        },
        {
            "type": "function",
            "name": "oo",
            "inputs": [],
            "outputs": [
                {
                    "name": "",
                    "type": "address",
                    "internalType": "contract OptimisticOracleV3Interface"
                }
            ],
            "stateMutability": "view"
        },
        {
            "type": "function",
            "name": "owner",
            "inputs": [],
            "outputs": [
                {
                    "name": "",
                    "type": "address",
                    "internalType": "address"
                }
            ],
            "stateMutability": "view"
        },
        {
            "type": "function",
            "name": "removeLabel",
            "inputs": [
                {
                    "name": "label",
                    "type": "string",
                    "internalType": "string"
                }
            ],
            "outputs": [],
            "stateMutability": "nonpayable"
        },
        {
            "type": "function",
            "name": "renounceOwnership",
            "inputs": [],
            "outputs": [],
            "stateMutability": "nonpayable"
        },
        {
            "type": "function",
            "name": "rewardToken",
            "inputs": [],
            "outputs": [
                {
                    "name": "",
                    "type": "address",
                    "internalType": "contract IERC20"
                }
            ],
            "stateMutability": "view"
        },
        {
            "type": "function",
            "name": "setEcpChannelId",
            "inputs": [
                {
                    "name": "_newChannelId",
                    "type": "uint256",
                    "internalType": "uint256"
                }
            ],
            "outputs": [],
            "stateMutability": "nonpayable"
        },
        {
            "type": "function",
            "name": "sources",
            "inputs": [
                {
                    "name": "",
                    "type": "bytes32",
                    "internalType": "bytes32"
                }
            ],
            "outputs": [
                {
                    "name": "asserter",
                    "type": "address",
                    "internalType": "address"
                },
                {
                    "name": "topicId",
                    "type": "bytes32",
                    "internalType": "bytes32"
                },
                {
                    "name": "label",
                    "type": "bytes32",
                    "internalType": "bytes32"
                },
                {
                    "name": "url",
                    "type": "string",
                    "internalType": "string"
                },
                {
                    "name": "description",
                    "type": "bytes",
                    "internalType": "bytes"
                },
                {
                    "name": "status",
                    "type": "uint8",
                    "internalType": "enum SourceAsserter.Status"
                },
                {
                    "name": "createdAt",
                    "type": "uint256",
                    "internalType": "uint256"
                },
                {
                    "name": "disputedAt",
                    "type": "uint256",
                    "internalType": "uint256"
                },
                {
                    "name": "ecpCommentId",
                    "type": "bytes32",
                    "internalType": "bytes32"
                }
            ],
            "stateMutability": "view"
        },
        {
            "type": "function",
            "name": "topics",
            "inputs": [
                {
                    "name": "",
                    "type": "bytes32",
                    "internalType": "bytes32"
                }
            ],
            "outputs": [
                {
                    "name": "title",
                    "type": "bytes",
                    "internalType": "bytes"
                },
                {
                    "name": "description",
                    "type": "bytes",
                    "internalType": "bytes"
                },
                {
                    "name": "originUrl",
                    "type": "bytes",
                    "internalType": "bytes"
                },
                {
                    "name": "startTime",
                    "type": "uint256",
                    "internalType": "uint256"
                },
                {
                    "name": "endTime",
                    "type": "uint256",
                    "internalType": "uint256"
                },
                {
                    "name": "creator",
                    "type": "address",
                    "internalType": "address"
                },
                {
                    "name": "sourceReward",
                    "type": "uint256",
                    "internalType": "uint256"
                },
                {
                    "name": "ecpCommentId",
                    "type": "bytes32",
                    "internalType": "bytes32"
                }
            ],
            "stateMutability": "view"
        },
        {
            "type": "function",
            "name": "transferOwnership",
            "inputs": [
                {
                    "name": "newOwner",
                    "type": "address",
                    "internalType": "address"
                }
            ],
            "outputs": [],
            "stateMutability": "nonpayable"
        },
        {
            "type": "event",
            "name": "EcpChannelIdUpdated",
            "inputs": [
                {
                    "name": "newChannelId",
                    "type": "uint256",
                    "indexed": false,
                    "internalType": "uint256"
                }
            ],
            "anonymous": false
        },
        {
            "type": "event",
            "name": "OwnershipTransferred",
            "inputs": [
                {
                    "name": "previousOwner",
                    "type": "address",
                    "indexed": true,
                    "internalType": "address"
                },
                {
                    "name": "newOwner",
                    "type": "address",
                    "indexed": true,
                    "internalType": "address"
                }
            ],
            "anonymous": false
        },
        {
            "type": "event",
            "name": "SourceResolved",
            "inputs": [
                {
                    "name": "assertionId",
                    "type": "bytes32",
                    "indexed": true,
                    "internalType": "bytes32"
                },
                {
                    "name": "assertedTruthfully",
                    "type": "bool",
                    "indexed": false,
                    "internalType": "bool"
                }
            ],
            "anonymous": false
        },
        {
            "type": "event",
            "name": "TopicInitialized",
            "inputs": [
                {
                    "name": "topicId",
                    "type": "bytes32",
                    "indexed": true,
                    "internalType": "bytes32"
                },
                {
                    "name": "title",
                    "type": "string",
                    "indexed": false,
                    "internalType": "string"
                },
                {
                    "name": "description",
                    "type": "string",
                    "indexed": false,
                    "internalType": "string"
                },
                {
                    "name": "originUrl",
                    "type": "string",
                    "indexed": false,
                    "internalType": "string"
                },
                {
                    "name": "startTime",
                    "type": "uint256",
                    "indexed": false,
                    "internalType": "uint256"
                },
                {
                    "name": "endTime",
                    "type": "uint256",
                    "indexed": false,
                    "internalType": "uint256"
                },
                {
                    "name": "sourceReward",
                    "type": "uint256",
                    "indexed": false,
                    "internalType": "uint256"
                }
            ],
            "anonymous": false
        },
        {
            "type": "event",
            "name": "TopicSourceAdded",
            "inputs": [
                {
                    "name": "topicId",
                    "type": "bytes32",
                    "indexed": true,
                    "internalType": "bytes32"
                },
                {
                    "name": "assertionId",
                    "type": "bytes32",
                    "indexed": true,
                    "internalType": "bytes32"
                }
            ],
            "anonymous": false
        },
        {
            "type": "error",
            "name": "ChannelIdAlreadySet",
            "inputs": []
        },
        {
            "type": "error",
            "name": "EmptyDescription",
            "inputs": []
        },
        {
            "type": "error",
            "name": "InvalidLabel",
            "inputs": []
        },
        {
            "type": "error",
            "name": "NotOptimisticOracle",
            "inputs": []
        },
        {
            "type": "error",
            "name": "TopicAlreadyExists",
            "inputs": []
        },
        {
            "type": "error",
            "name": "TopicDoesNotExist",
            "inputs": []
        },
        {
            "type": "error",
            "name": "TopicExpired",
            "inputs": []
        },
        {
            "type": "error",
            "name": "UnsupportedCurrency",
            "inputs": []
        }
    ],
    "bytecode": {
        "object": "0x6101406040523480156200001257600080fd5b506040516200568e3803806200568e833981810160405281019062000038919062000626565b60016000806040516020016200004e9062000709565b60405160208183030381529060405280519060200120815260200190815260200160002060006101000a81548160ff02191690831515021790555060016000806040516020016200009f9062000770565b60405160208183030381529060405280519060200120815260200190815260200160002060006101000a81548160ff0219169083151502179055506001600080604051602001620000f090620007d7565b60405160208183030381529060405280519060200120815260200190815260200160002060006101000a81548160ff021916908315150217905550600160008060405160200162000141906200083e565b60405160208183030381529060405280519060200120815260200190815260200160002060006101000a81548160ff02191690831515021790555060016000806040516020016200019290620008a5565b60405160208183030381529060405280519060200120815260200190815260200160002060006101000a81548160ff021916908315150217905550620001ed620001e16200044660201b60201c565b6200044e60201b60201c565b8473ffffffffffffffffffffffffffffffffffffffff1660808173ffffffffffffffffffffffffffffffffffffffff1681525050620002316200051460201b60201c565b73ffffffffffffffffffffffffffffffffffffffff16633a3ab672856040518263ffffffff1660e01b81526004016200026b9190620008cd565b602060405180830381865afa15801562000289573d6000803e3d6000fd5b505050506040513d601f19601f82011682018060405250810190620002af919062000927565b620002e6576040517f2263f4e200000000000000000000000000000000000000000000000000000000815260040160405180910390fd5b8373ffffffffffffffffffffffffffffffffffffffff1660a08173ffffffffffffffffffffffffffffffffffffffff16815250508273ffffffffffffffffffffffffffffffffffffffff1660e08173ffffffffffffffffffffffffffffffffffffffff168152505060e05173ffffffffffffffffffffffffffffffffffffffff1663d509b0176040518163ffffffff1660e01b8152600401602060405180830381865afa1580156200039c573d6000803e3d6000fd5b505050506040513d601f19601f82011682018060405250810190620003c2919062000994565b61012081815250508173ffffffffffffffffffffffffffffffffffffffff1660c08173ffffffffffffffffffffffffffffffffffffffff168152505060006004819055508073ffffffffffffffffffffffffffffffffffffffff166101008173ffffffffffffffffffffffffffffffffffffffff1681525050505050505062000a26565b600033905090565b6000600160009054906101000a900473ffffffffffffffffffffffffffffffffffffffff16905081600160006101000a81548173ffffffffffffffffffffffffffffffffffffffff021916908373ffffffffffffffffffffffffffffffffffffffff1602179055508173ffffffffffffffffffffffffffffffffffffffff168173ffffffffffffffffffffffffffffffffffffffff167f8be0079c531659141344cd1fd0a4f28419497f9722a3daafe3b4186f6b6457e060405160405180910390a35050565b600060805173ffffffffffffffffffffffffffffffffffffffff1663aafd5e407f436f6c6c61746572616c57686974656c697374000000000000000000000000006040518263ffffffff1660e01b8152600401620005739190620009d7565b602060405180830381865afa15801562000591573d6000803e3d6000fd5b505050506040513d601f19601f82011682018060405250810190620005b79190620009f4565b905090565b600080fd5b600073ffffffffffffffffffffffffffffffffffffffff82169050919050565b6000620005ee82620005c1565b9050919050565b6200060081620005e1565b81146200060c57600080fd5b50565b6000815190506200062081620005f5565b92915050565b600080600080600060a08688031215620006455762000644620005bc565b5b600062000655888289016200060f565b955050602062000668888289016200060f565b94505060406200067b888289016200060f565b93505060606200068e888289016200060f565b9250506080620006a1888289016200060f565b9150509295509295909350565b600081905092915050565b7f6170690000000000000000000000000000000000000000000000000000000000600082015250565b6000620006f1600383620006ae565b9150620006fe82620006b9565b600382019050919050565b60006200071682620006e2565b9150819050919050565b7f7477656574000000000000000000000000000000000000000000000000000000600082015250565b600062000758600583620006ae565b9150620007658262000720565b600582019050919050565b60006200077d8262000749565b9150819050919050565b7f6e65777300000000000000000000000000000000000000000000000000000000600082015250565b6000620007bf600483620006ae565b9150620007cc8262000787565b600482019050919050565b6000620007e482620007b0565b9150819050919050565b7f6865617273617900000000000000000000000000000000000000000000000000600082015250565b600062000826600783620006ae565b91506200083382620007ee565b600782019050919050565b60006200084b8262000817565b9150819050919050565b7f6f726967696e616c000000000000000000000000000000000000000000000000600082015250565b60006200088d600883620006ae565b91506200089a8262000855565b600882019050919050565b6000620008b2826200087e565b9150819050919050565b620008c781620005e1565b82525050565b6000602082019050620008e46000830184620008bc565b92915050565b60008115159050919050565b6200090181620008ea565b81146200090d57600080fd5b50565b6000815190506200092181620008f6565b92915050565b60006020828403121562000940576200093f620005bc565b5b6000620009508482850162000910565b91505092915050565b6000819050919050565b6200096e8162000959565b81146200097a57600080fd5b50565b6000815190506200098e8162000963565b92915050565b600060208284031215620009ad57620009ac620005bc565b5b6000620009bd848285016200097d565b91505092915050565b620009d18162000959565b82525050565b6000602082019050620009ee6000830184620009c6565b92915050565b60006020828403121562000a0d5762000a0c620005bc565b5b600062000a1d848285016200060f565b91505092915050565b60805160a05160c05160e0516101005161012051614baf62000adf60003960008181610e170152611962015260008181610fcc0152818161132a015281816118f7015281816119aa0152611c13015260008181610af501528181610c2f01528181610d3b01528181610db20152818161181401526119ce015260008181611b0a0152611d07015260008181610c6b01528181610cf101528181610d5d01528181610df50152611986015260006115300152614baf6000f3fe608060405234801561001057600080fd5b506004361061014d5760003560e01c8063b75d4e24116100c3578063d509b0171161007c578063d509b017146103c1578063e5a6b10f146103df578063ea3c4961146103fd578063f1b156b21461041b578063f2fde38b14610437578063f7c618c1146104535761014d565b8063b75d4e24146102ff578063b7dec70e1461031d578063b9a3c84c14610339578063c9fcac8b14610357578063cbea41d114610375578063d448a4ec146103a55761014d565b80635f1d78ae116101155780635f1d78ae14610221578063715018a6146102595780638921a614146102635780638c290ed5146102815780638da5cb5b146102b1578063b5c67749146102cf5761014d565b80630f2fbeec14610152578063122e29001461018957806318163bbe146101a5578063375ff188146101c1578063396a4bf1146101f1575b600080fd5b61016c60048036038101906101679190612a93565b610471565b604051610180989796959493929190612bb9565b60405180910390f35b6101a3600480360381019061019e9190612cb1565b610671565b005b6101bf60048036038101906101ba9190612cb1565b6106c8565b005b6101db60048036038101906101d69190612a93565b61071f565b6040516101e89190612d19565b60405180910390f35b61020b60048036038101906102069190612a93565b61073f565b6040516102189190612f43565b60405180910390f35b61023b60048036038101906102369190612a93565b610954565b60405161025099989796959493929190612fbe565b60405180910390f35b610261610adf565b005b61026b610af3565b60405161027891906130b8565b60405180910390f35b61029b60048036038101906102969190613203565b610b17565b6040516102a891906132be565b60405180910390f35b6102b9611133565b6040516102c691906132d9565b60405180910390f35b6102e960048036038101906102e49190613320565b61115d565b6040516102f691906132be565b60405180910390f35b6103076114a4565b6040516103149190613412565b60405180910390f35b6103376004803603810190610332919061342d565b6114a9565b005b61034161152e565b60405161034e919061347b565b60405180910390f35b61035f611552565b60405161036c9190613496565b60405180910390f35b61038f600480360381019061038a9190612a93565b611558565b60405161039c919061363a565b60405180910390f35b6103bf60048036038101906103ba9190612a93565b611812565b005b6103c9611960565b6040516103d691906132be565b60405180910390f35b6103e7611984565b6040516103f4919061367d565b60405180910390f35b6104056119a8565b60405161041291906136b9565b60405180910390f35b61043560048036038101906104309190613700565b6119cc565b005b610451600480360381019061044c919061376c565b611c82565b005b61045b611d05565b604051610468919061367d565b60405180910390f35b6002602052806000526040600020600091509050806000018054610494906137c8565b80601f01602080910402602001604051908101604052809291908181526020018280546104c0906137c8565b801561050d5780601f106104e25761010080835404028352916020019161050d565b820191906000526020600020905b8154815290600101906020018083116104f057829003601f168201915b505050505090806001018054610522906137c8565b80601f016020809104026020016040519081016040528092919081815260200182805461054e906137c8565b801561059b5780601f106105705761010080835404028352916020019161059b565b820191906000526020600020905b81548152906001019060200180831161057e57829003601f168201915b5050505050908060020180546105b0906137c8565b80601f01602080910402602001604051908101604052809291908181526020018280546105dc906137c8565b80156106295780601f106105fe57610100808354040283529160200191610629565b820191906000526020600020905b81548152906001019060200180831161060c57829003601f168201915b5050505050908060030154908060040154908060060160009054906101000a900473ffffffffffffffffffffffffffffffffffffffff16908060070154908060080154905088565b60008060008484604051602001610689929190613829565b60405160208183030381529060405280519060200120815260200190815260200160002060006101000a81548160ff0219169083151502179055505050565b600160008084846040516020016106e0929190613829565b60405160208183030381529060405280519060200120815260200190815260200160002060006101000a81548160ff0219169083151502179055505050565b60006020528060005260406000206000915054906101000a900460ff1681565b6107476128e0565b60036000838152602001908152602001600020604051806101200160405290816000820160009054906101000a900473ffffffffffffffffffffffffffffffffffffffff1673ffffffffffffffffffffffffffffffffffffffff1673ffffffffffffffffffffffffffffffffffffffff16815260200160018201548152602001600282015481526020016003820180546107e0906137c8565b80601f016020809104026020016040519081016040528092919081815260200182805461080c906137c8565b80156108595780601f1061082e57610100808354040283529160200191610859565b820191906000526020600020905b81548152906001019060200180831161083c57829003601f168201915b50505050508152602001600482018054610872906137c8565b80601f016020809104026020016040519081016040528092919081815260200182805461089e906137c8565b80156108eb5780601f106108c0576101008083540402835291602001916108eb565b820191906000526020600020905b8154815290600101906020018083116108ce57829003601f168201915b505050505081526020016005820160009054906101000a900460ff16600381111561091957610918612df1565b5b600381111561092b5761092a612df1565b5b815260200160068201548152602001600782015481526020016008820154815250509050919050565b60036020528060005260406000206000915090508060000160009054906101000a900473ffffffffffffffffffffffffffffffffffffffff16908060010154908060020154908060030180546109a9906137c8565b80601f01602080910402602001604051908101604052809291908181526020018280546109d5906137c8565b8015610a225780601f106109f757610100808354040283529160200191610a22565b820191906000526020600020905b815481529060010190602001808311610a0557829003601f168201915b505050505090806004018054610a37906137c8565b80601f0160208091040260200160405190810160405280929190818152602001828054610a63906137c8565b8015610ab05780601f10610a8557610100808354040283529160200191610ab0565b820191906000526020600020905b815481529060010190602001808311610a9357829003601f168201915b5050505050908060050160009054906101000a900460ff16908060060154908060070154908060080154905089565b610ae7611d29565b610af16000611da7565b565b7f000000000000000000000000000000000000000000000000000000000000000081565b6000806002600087815260200190815260200160002090506000816003015403610b6d576040517f6989424500000000000000000000000000000000000000000000000000000000815260040160405180910390fd5b80600401544210610baa576040517fb1d26f6000000000000000000000000000000000000000000000000000000000815260040160405180910390fd5b600085604051602001610bbd9190613873565b60405160208183030381529060405280519060200120905060008082815260200190815260200160002060009054906101000a900460ff16610c2b576040517f3d36cb8d00000000000000000000000000000000000000000000000000000000815260040160405180910390fd5b60007f000000000000000000000000000000000000000000000000000000000000000073ffffffffffffffffffffffffffffffffffffffff16634360af3d7f00000000000000000000000000000000000000000000000000000000000000006040518263ffffffff1660e01b8152600401610ca691906132d9565b602060405180830381865afa158015610cc3573d6000803e3d6000fd5b505050506040513d601f19601f82011682018060405250810190610ce7919061389f565b9050610d363330837f000000000000000000000000000000000000000000000000000000000000000073ffffffffffffffffffffffffffffffffffffffff16611e6d909392919063ffffffff16565b610da17f0000000000000000000000000000000000000000000000000000000000000000827f000000000000000000000000000000000000000000000000000000000000000073ffffffffffffffffffffffffffffffffffffffff16611ef69092919063ffffffff16565b6000610dae898888612045565b90507f000000000000000000000000000000000000000000000000000000000000000073ffffffffffffffffffffffffffffffffffffffff16636457c979823330600060787f0000000000000000000000000000000000000000000000000000000000000000897f00000000000000000000000000000000000000000000000000000000000000006000801b6040518a63ffffffff1660e01b8152600401610e5e999897969594939291906138cc565b6020604051808303816000875af1158015610e7d573d6000803e3d6000fd5b505050506040513d601f19601f82011682018060405250810190610ea19190613975565b94508360050185908060018154018082558091505060019003906000526020600020016000909190919091505560006040518061012001604052803373ffffffffffffffffffffffffffffffffffffffff1681526020018b815260200185815260200189815260200188815260200160006003811115610f2457610f23612df1565b5b8152602001428152602001600081526020016000801b81525090506000610f4a33612086565b604051602001610f5a9190613a2a565b604051602081830303815290604052905060008882604051602001610f80929190613ae4565b6040516020818303038152906040529050600081905060008b511115610fc557818b604051602001610fb3929190613b6a565b60405160208183030381529060405290505b6000610ffa7f00000000000000000000000000000000000000000000000000000000000000006004548b6008015485306120e9565b9050808561010001818152505084600360008c815260200190815260200160002060008201518160000160006101000a81548173ffffffffffffffffffffffffffffffffffffffff021916908373ffffffffffffffffffffffffffffffffffffffff1602179055506020820151816001015560408201518160020155606082015181600301908161108b9190613d46565b5060808201518160040190816110a19190613e73565b5060a08201518160050160006101000a81548160ff021916908360038111156110cd576110cc612df1565b5b021790555060c0820151816006015560e082015181600701556101008201518160080155905050898e7f8a4b9beed1ca48e865ab1477b14a115e9948ba2f182986dc2c2852c47700fc7a60405160405180910390a3505050505050505050949350505050565b6000600160009054906101000a900473ffffffffffffffffffffffffffffffffffffffff16905090565b600080855103611199576040517fd937d5df00000000000000000000000000000000000000000000000000000000815260040160405180910390fd5b6000429050808787876040516020016111b59493929190613f66565b604051602081830303815290604052805190602001209150600060026000848152602001908152602001600020600301541461121d576040517f94b0e08100000000000000000000000000000000000000000000000000000000815260040160405180910390fd5b6000604051806101200160405280898152602001888152602001878152602001838152602001868461124f9190613fd7565b8152602001600067ffffffffffffffff81111561126f5761126e6130d8565b5b60405190808252806020026020018201604052801561129d5781602001602082028036833780820191505090505b5081526020013373ffffffffffffffffffffffffffffffffffffffff1681526020018581526020016000801b8152509050600088886040516020016112e3929190614057565b60405160208183030381529060405290506000875111156113235780876040516020016113119291906140d2565b60405160208183030381529060405290505b60006113577f00000000000000000000000000000000000000000000000000000000000000006004546000801b85306120e9565b905080836101000181815250508260026000878152602001908152602001600020600082015181600001908161138d9190613e73565b5060208201518160010190816113a39190613e73565b5060408201518160020190816113b99190613e73565b50606082015181600301556080820151816004015560a08201518160050190805190602001906113ea92919061295d565b5060c08201518160060160006101000a81548173ffffffffffffffffffffffffffffffffffffffff021916908373ffffffffffffffffffffffffffffffffffffffff16021790555060e082015181600701556101008201518160080155905050847fbb1789258ad1a5a24b3c13eb07b14d3310823b4ef610ab4af1ba9789b6e647348b8b8b888c8a61147c9190613fd7565b8c60405161148f9695949392919061410c565b60405180910390a25050505095945050505050565b607881565b6114b1611d29565b6000600454146114ed576040517f4fd3452e00000000000000000000000000000000000000000000000000000000815260040160405180910390fd5b806004819055507f03f7853314dca874da694b117cff11562039e4bed3d71932ed436d1c22f71099816040516115239190613496565b60405180910390a150565b7f000000000000000000000000000000000000000000000000000000000000000081565b60045481565b6115606129aa565b600260008381526020019081526020016000206040518061012001604052908160008201805461158f906137c8565b80601f01602080910402602001604051908101604052809291908181526020018280546115bb906137c8565b80156116085780601f106115dd57610100808354040283529160200191611608565b820191906000526020600020905b8154815290600101906020018083116115eb57829003601f168201915b50505050508152602001600182018054611621906137c8565b80601f016020809104026020016040519081016040528092919081815260200182805461164d906137c8565b801561169a5780601f1061166f5761010080835404028352916020019161169a565b820191906000526020600020905b81548152906001019060200180831161167d57829003601f168201915b505050505081526020016002820180546116b3906137c8565b80601f01602080910402602001604051908101604052809291908181526020018280546116df906137c8565b801561172c5780601f106117015761010080835404028352916020019161172c565b820191906000526020600020905b81548152906001019060200180831161170f57829003601f168201915b5050505050815260200160038201548152602001600482015481526020016005820180548060200260200160405190810160405280929190818152602001828054801561179857602002820191906000526020600020905b815481526020019060010190808311611784575b505050505081526020016006820160009054906101000a900473ffffffffffffffffffffffffffffffffffffffff1673ffffffffffffffffffffffffffffffffffffffff1673ffffffffffffffffffffffffffffffffffffffff168152602001600782015481526020016008820154815250509050919050565b7f000000000000000000000000000000000000000000000000000000000000000073ffffffffffffffffffffffffffffffffffffffff163373ffffffffffffffffffffffffffffffffffffffff1614611897576040517f05cef85500000000000000000000000000000000000000000000000000000000815260040160405180910390fd5b600060036000838152602001908152602001600020905060028160050160006101000a81548160ff021916908360038111156118d6576118d5612df1565b5b02179055504281600701819055506000801b81600801541461195c5761195a7f000000000000000000000000000000000000000000000000000000000000000060045483600801546040518060400160405280600881526020017f4469737075746564000000000000000000000000000000000000000000000000815250306120e9565b505b5050565b7f000000000000000000000000000000000000000000000000000000000000000081565b7f000000000000000000000000000000000000000000000000000000000000000081565b7f000000000000000000000000000000000000000000000000000000000000000081565b7f000000000000000000000000000000000000000000000000000000000000000073ffffffffffffffffffffffffffffffffffffffff163373ffffffffffffffffffffffffffffffffffffffff1614611a51576040517f05cef85500000000000000000000000000000000000000000000000000000000815260040160405180910390fd5b60006003600084815260200190815260200160002090506000600260008360010154815260200190815260200160002090508215611b545760018260050160006101000a81548160ff02191690836003811115611ab157611ab0612df1565b5b0217905550611b4f8160060160009054906101000a900473ffffffffffffffffffffffffffffffffffffffff168360000160009054906101000a900473ffffffffffffffffffffffffffffffffffffffff1683600701547f000000000000000000000000000000000000000000000000000000000000000073ffffffffffffffffffffffffffffffffffffffff16611e6d909392919063ffffffff16565b611b82565b60038260050160006101000a81548160ff02191690836003811115611b7c57611b7b612df1565b5b02179055505b6000801b826008015414611c445760608315611bd5576040518060400160405280600f81526020017f417070726f76656420627920554d4100000000000000000000000000000000008152509050611c0e565b6040518060400160405280600f81526020017f52656a656374656420627920554d41000000000000000000000000000000000081525090505b611c417f0000000000000000000000000000000000000000000000000000000000000000600454856008015484306120e9565b50505b837f3decca44a8ef743a8562881c76218a5b71918490130b2e17e19a52371669275284604051611c749190612d19565b60405180910390a250505050565b611c8a611d29565b600073ffffffffffffffffffffffffffffffffffffffff168173ffffffffffffffffffffffffffffffffffffffff1603611cf9576040517f08c379a0000000000000000000000000000000000000000000000000000000008152600401611cf0906141f4565b60405180910390fd5b611d0281611da7565b50565b7f000000000000000000000000000000000000000000000000000000000000000081565b611d316122a8565b73ffffffffffffffffffffffffffffffffffffffff16611d4f611133565b73ffffffffffffffffffffffffffffffffffffffff1614611da5576040517f08c379a0000000000000000000000000000000000000000000000000000000008152600401611d9c90614260565b60405180910390fd5b565b6000600160009054906101000a900473ffffffffffffffffffffffffffffffffffffffff16905081600160006101000a81548173ffffffffffffffffffffffffffffffffffffffff021916908373ffffffffffffffffffffffffffffffffffffffff1602179055508173ffffffffffffffffffffffffffffffffffffffff168173ffffffffffffffffffffffffffffffffffffffff167f8be0079c531659141344cd1fd0a4f28419497f9722a3daafe3b4186f6b6457e060405160405180910390a35050565b611ef0846323b872dd60e01b858585604051602401611e8e93929190614280565b604051602081830303815290604052907bffffffffffffffffffffffffffffffffffffffffffffffffffffffff19166020820180517bffffffffffffffffffffffffffffffffffffffffffffffffffffffff83818316178352505050506122b0565b50505050565b6000811480611f80575060008373ffffffffffffffffffffffffffffffffffffffff1663dd62ed3e30856040518363ffffffff1660e01b8152600401611f3d9291906142b7565b602060405180830381865afa158015611f5a573d6000803e3d6000fd5b505050506040513d601f19601f82011682018060405250810190611f7e919061389f565b145b611fbf576040517f08c379a0000000000000000000000000000000000000000000000000000000008152600401611fb690614352565b60405180910390fd5b6120408363095ea7b360e01b8484604051602401611fde929190614372565b604051602081830303815290604052907bffffffffffffffffffffffffffffffffffffffffffffffffffffffff19166020820180517bffffffffffffffffffffffffffffffffffffffffffffffffffffffff83818316178352505050506122b0565b505050565b606061205042612377565b612059856124ff565b848460405160200161206e949392919061447f565b60405160208183030381529060405290509392505050565b60606120a760808360601b6bffffffffffffffffffffffff1916901c61253e565b6120c28360601b6bffffffffffffffffffffffff191661253e565b6040516020016120d3929190614557565b6040516020818303038152906040529050919050565b60008073ffffffffffffffffffffffffffffffffffffffff168673ffffffffffffffffffffffffffffffffffffffff1603612129576000801b905061229f565b60006040518061012001604052808473ffffffffffffffffffffffffffffffffffffffff1681526020018473ffffffffffffffffffffffffffffffffffffffff16815260200187815260200162015180426121849190613fd7565b8152602001868152602001600060ff168152602001858152602001600067ffffffffffffffff8111156121ba576121b96130d8565b5b6040519080825280602002602001820160405280156121f357816020015b6121e0612a0f565b8152602001906001900390816121d85790505b5081526020016040518060200160405280600081525081525090508673ffffffffffffffffffffffffffffffffffffffff1663762c08e282604051806020016040528060008152506040518363ffffffff1660e01b8152600401612258929190614771565b6020604051808303816000875af1158015612277573d6000803e3d6000fd5b505050506040513d601f19601f8201168201806040525081019061229b9190613975565b9150505b95945050505050565b600033905090565b6000612312826040518060400160405280602081526020017f5361666545524332303a206c6f772d6c6576656c2063616c6c206661696c65648152508573ffffffffffffffffffffffffffffffffffffffff166127139092919063ffffffff16565b9050600081511115612372578080602001905181019061233291906147bd565b612371576040517f08c379a00000000000000000000000000000000000000000000000000000000081526004016123689061485c565b60405180910390fd5b5b505050565b6060600082036123be576040518060400160405280600181526020017f300000000000000000000000000000000000000000000000000000000000000081525090506124fa565b600082905060005b600082146123f05780806123d99061487c565b915050600a826123e991906148f3565b91506123c6565b60008167ffffffffffffffff81111561240c5761240b6130d8565b5b6040519080825280601f01601f19166020018201604052801561243e5781602001600182028036833780820191505090505b50905060008290505b600086146124f25760018161245c9190614924565b90506000600a808861246e91906148f3565b6124789190614958565b876124839190614924565b603061248f91906149b2565b905060008160f81b9050808484815181106124ad576124ac6149e7565b5b60200101907effffffffffffffffffffffffffffffffffffffffffffffffffffffffffffff1916908160001a905350600a886124e991906148f3565b97505050612447565b819450505050505b919050565b606061250e608083901c61253e565b6125178361253e565b604051602001612528929190614a16565b6040516020818303038152906040529050919050565b6000808260001c90506fffffffffffffffffffffffffffffffff8116905077ffffffffffffffff0000000000000000ffffffffffffffff68010000000000000000820282171690507bffffffff00000000ffffffff00000000ffffffff00000000ffffffff640100000000820282171690507dffff0000ffff0000ffff0000ffff0000ffff0000ffff0000ffff0000ffff62010000820282171690507eff00ff00ff00ff00ff00ff00ff00ff00ff00ff00ff00ff00ff00ff00ff00ff610100820282171690507f0f0f0f0f0f0f0f0f0f0f0f0f0f0f0f0f0f0f0f0f0f0f0f0f0f0f0f0f0f0f0f0f601082028217169050600060087f0808080808080808080808080808080808080808080808080808080808080808831681612663576126626148c4565b5b049050600060047f040404040404040404040404040404040404040404040404040404040404040484168161269b5761269a6148c4565b5b049050600060027f02020202020202020202020202020202020202020202020202020202020202028516816126d3576126d26148c4565b5b0490507f3030303030303030303030303030303030303030303030303030303030303030602782841785160285010193508360001b945050505050919050565b6060612722848460008561272b565b90509392505050565b606082471015612770576040517f08c379a000000000000000000000000000000000000000000000000000000000815260040161276790614ab4565b60405180910390fd5b6000808673ffffffffffffffffffffffffffffffffffffffff1685876040516127999190614ad4565b60006040518083038185875af1925050503d80600081146127d6576040519150601f19603f3d011682016040523d82523d6000602084013e6127db565b606091505b50915091506127ec878383876127f8565b92505050949350505050565b6060831561285a576000835103612852576128128561286d565b612851576040517f08c379a000000000000000000000000000000000000000000000000000000000815260040161284890614b37565b60405180910390fd5b5b829050612865565b6128648383612890565b5b949350505050565b6000808273ffffffffffffffffffffffffffffffffffffffff163b119050919050565b6000825111156128a35781518083602001fd5b806040517f08c379a00000000000000000000000000000000000000000000000000000000081526004016128d79190614b57565b60405180910390fd5b604051806101200160405280600073ffffffffffffffffffffffffffffffffffffffff168152602001600080191681526020016000801916815260200160608152602001606081526020016000600381111561293f5761293e612df1565b5b81526020016000815260200160008152602001600080191681525090565b828054828255906000526020600020908101928215612999579160200282015b8281111561299857825182559160200191906001019061297d565b5b5090506129a69190612a2c565b5090565b604051806101200160405280606081526020016060815260200160608152602001600081526020016000815260200160608152602001600073ffffffffffffffffffffffffffffffffffffffff16815260200160008152602001600080191681525090565b604051806040016040528060008019168152602001606081525090565b5b80821115612a45576000816000905550600101612a2d565b5090565b6000604051905090565b600080fd5b600080fd5b6000819050919050565b612a7081612a5d565b8114612a7b57600080fd5b50565b600081359050612a8d81612a67565b92915050565b600060208284031215612aa957612aa8612a53565b5b6000612ab784828501612a7e565b91505092915050565b600081519050919050565b600082825260208201905092915050565b60005b83811015612afa578082015181840152602081019050612adf565b60008484015250505050565b6000601f19601f8301169050919050565b6000612b2282612ac0565b612b2c8185612acb565b9350612b3c818560208601612adc565b612b4581612b06565b840191505092915050565b6000819050919050565b612b6381612b50565b82525050565b600073ffffffffffffffffffffffffffffffffffffffff82169050919050565b6000612b9482612b69565b9050919050565b612ba481612b89565b82525050565b612bb381612a5d565b82525050565b6000610100820190508181036000830152612bd4818b612b17565b90508181036020830152612be8818a612b17565b90508181036040830152612bfc8189612b17565b9050612c0b6060830188612b5a565b612c186080830187612b5a565b612c2560a0830186612b9b565b612c3260c0830185612b5a565b612c3f60e0830184612baa565b9998505050505050505050565b600080fd5b600080fd5b600080fd5b60008083601f840112612c7157612c70612c4c565b5b8235905067ffffffffffffffff811115612c8e57612c8d612c51565b5b602083019150836001820283011115612caa57612ca9612c56565b5b9250929050565b60008060208385031215612cc857612cc7612a53565b5b600083013567ffffffffffffffff811115612ce657612ce5612a58565b5b612cf285828601612c5b565b92509250509250929050565b60008115159050919050565b612d1381612cfe565b82525050565b6000602082019050612d2e6000830184612d0a565b92915050565b612d3d81612b89565b82525050565b612d4c81612a5d565b82525050565b600081519050919050565b600082825260208201905092915050565b6000612d7982612d52565b612d838185612d5d565b9350612d93818560208601612adc565b612d9c81612b06565b840191505092915050565b600082825260208201905092915050565b6000612dc382612ac0565b612dcd8185612da7565b9350612ddd818560208601612adc565b612de681612b06565b840191505092915050565b7f4e487b7100000000000000000000000000000000000000000000000000000000600052602160045260246000fd5b60048110612e3157612e30612df1565b5b50565b6000819050612e4282612e20565b919050565b6000612e5282612e34565b9050919050565b612e6281612e47565b82525050565b612e7181612b50565b82525050565b600061012083016000830151612e906000860182612d34565b506020830151612ea36020860182612d43565b506040830151612eb66040860182612d43565b5060608301518482036060860152612ece8282612d6e565b91505060808301518482036080860152612ee88282612db8565b91505060a0830151612efd60a0860182612e59565b5060c0830151612f1060c0860182612e68565b5060e0830151612f2360e0860182612e68565b50610100830151612f38610100860182612d43565b508091505092915050565b60006020820190508181036000830152612f5d8184612e77565b905092915050565b600082825260208201905092915050565b6000612f8182612d52565b612f8b8185612f65565b9350612f9b818560208601612adc565b612fa481612b06565b840191505092915050565b612fb881612e47565b82525050565b600061012082019050612fd4600083018c612b9b565b612fe1602083018b612baa565b612fee604083018a612baa565b81810360608301526130008189612f76565b905081810360808301526130148188612b17565b905061302360a0830187612faf565b61303060c0830186612b5a565b61303d60e0830185612b5a565b61304b610100830184612baa565b9a9950505050505050505050565b6000819050919050565b600061307e61307961307484612b69565b613059565b612b69565b9050919050565b600061309082613063565b9050919050565b60006130a282613085565b9050919050565b6130b281613097565b82525050565b60006020820190506130cd60008301846130a9565b92915050565b600080fd5b7f4e487b7100000000000000000000000000000000000000000000000000000000600052604160045260246000fd5b61311082612b06565b810181811067ffffffffffffffff8211171561312f5761312e6130d8565b5b80604052505050565b6000613142612a49565b905061314e8282613107565b919050565b600067ffffffffffffffff82111561316e5761316d6130d8565b5b61317782612b06565b9050602081019050919050565b82818337600083830152505050565b60006131a66131a184613153565b613138565b9050828152602081018484840111156131c2576131c16130d3565b5b6131cd848285613184565b509392505050565b600082601f8301126131ea576131e9612c4c565b5b81356131fa848260208601613193565b91505092915050565b6000806000806080858703121561321d5761321c612a53565b5b600061322b87828801612a7e565b945050602085013567ffffffffffffffff81111561324c5761324b612a58565b5b613258878288016131d5565b935050604085013567ffffffffffffffff81111561327957613278612a58565b5b613285878288016131d5565b925050606085013567ffffffffffffffff8111156132a6576132a5612a58565b5b6132b2878288016131d5565b91505092959194509250565b60006020820190506132d36000830184612baa565b92915050565b60006020820190506132ee6000830184612b9b565b92915050565b6132fd81612b50565b811461330857600080fd5b50565b60008135905061331a816132f4565b92915050565b600080600080600060a0868803121561333c5761333b612a53565b5b600086013567ffffffffffffffff81111561335a57613359612a58565b5b613366888289016131d5565b955050602086013567ffffffffffffffff81111561338757613386612a58565b5b613393888289016131d5565b945050604086013567ffffffffffffffff8111156133b4576133b3612a58565b5b6133c0888289016131d5565b93505060606133d18882890161330b565b92505060806133e28882890161330b565b9150509295509295909350565b600067ffffffffffffffff82169050919050565b61340c816133ef565b82525050565b60006020820190506134276000830184613403565b92915050565b60006020828403121561344357613442612a53565b5b60006134518482850161330b565b91505092915050565b600061346582613085565b9050919050565b6134758161345a565b82525050565b6000602082019050613490600083018461346c565b92915050565b60006020820190506134ab6000830184612b5a565b92915050565b600081519050919050565b600082825260208201905092915050565b6000819050602082019050919050565b60006134e98383612d43565b60208301905092915050565b6000602082019050919050565b600061350d826134b1565b61351781856134bc565b9350613522836134cd565b8060005b8381101561355357815161353a88826134dd565b9750613545836134f5565b925050600181019050613526565b5085935050505092915050565b600061012083016000830151848203600086015261357e8282612db8565b915050602083015184820360208601526135988282612db8565b915050604083015184820360408601526135b28282612db8565b91505060608301516135c76060860182612e68565b5060808301516135da6080860182612e68565b5060a083015184820360a08601526135f28282613502565b91505060c083015161360760c0860182612d34565b5060e083015161361a60e0860182612e68565b5061010083015161362f610100860182612d43565b508091505092915050565b600060208201905081810360008301526136548184613560565b905092915050565b600061366782613085565b9050919050565b6136778161365c565b82525050565b6000602082019050613692600083018461366e565b92915050565b60006136a382613085565b9050919050565b6136b381613698565b82525050565b60006020820190506136ce60008301846136aa565b92915050565b6136dd81612cfe565b81146136e857600080fd5b50565b6000813590506136fa816136d4565b92915050565b6000806040838503121561371757613716612a53565b5b600061372585828601612a7e565b9250506020613736858286016136eb565b9150509250929050565b61374981612b89565b811461375457600080fd5b50565b60008135905061376681613740565b92915050565b60006020828403121561378257613781612a53565b5b600061379084828501613757565b91505092915050565b7f4e487b7100000000000000000000000000000000000000000000000000000000600052602260045260246000fd5b600060028204905060018216806137e057607f821691505b6020821081036137f3576137f2613799565b5b50919050565b600081905092915050565b600061381083856137f9565b935061381d838584613184565b82840190509392505050565b6000613836828486613804565b91508190509392505050565b600061384d82612d52565b61385781856137f9565b9350613867818560208601612adc565b80840191505092915050565b600061387f8284613842565b915081905092915050565b600081519050613899816132f4565b92915050565b6000602082840312156138b5576138b4612a53565b5b60006138c38482850161388a565b91505092915050565b60006101208201905081810360008301526138e7818c612b17565b90506138f6602083018b612b9b565b613903604083018a612b9b565b6139106060830189612b9b565b61391d6080830188613403565b61392a60a083018761366e565b61393760c0830186612b5a565b61394460e0830185612baa565b613952610100830184612baa565b9a9950505050505050505050565b60008151905061396f81612a67565b92915050565b60006020828403121561398b5761398a612a53565b5b600061399984828501613960565b91505092915050565b7f3078000000000000000000000000000000000000000000000000000000000000600082015250565b60006139d86002836137f9565b91506139e3826139a2565b600282019050919050565b600081905092915050565b6000613a0482612ac0565b613a0e81856139ee565b9350613a1e818560208601612adc565b80840191505092915050565b6000613a35826139cb565b9150613a4182846139f9565b915081905092915050565b7f202841737365727465642062793a200000000000000000000000000000000000600082015250565b6000613a82600f836137f9565b9150613a8d82613a4c565b600f82019050919050565b7f2900000000000000000000000000000000000000000000000000000000000000600082015250565b6000613ace6001836137f9565b9150613ad982613a98565b600182019050919050565b6000613af08285613842565b9150613afb82613a75565b9150613b078284613842565b9150613b1282613ac1565b91508190509392505050565b7f2028536f757263652055524c3a20000000000000000000000000000000000000600082015250565b6000613b54600e836137f9565b9150613b5f82613b1e565b600e82019050919050565b6000613b768285613842565b9150613b8182613b47565b9150613b8d8284613842565b9150613b9882613ac1565b91508190509392505050565b60008190508160005260206000209050919050565b60006020601f8301049050919050565b600082821b905092915050565b600060088302613c067fffffffffffffffffffffffffffffffffffffffffffffffffffffffffffffffff82613bc9565b613c108683613bc9565b95508019841693508086168417925050509392505050565b6000613c43613c3e613c3984612b50565b613059565b612b50565b9050919050565b6000819050919050565b613c5d83613c28565b613c71613c6982613c4a565b848454613bd6565b825550505050565b600090565b613c86613c79565b613c91818484613c54565b505050565b5b81811015613cb557613caa600082613c7e565b600181019050613c97565b5050565b601f821115613cfa57613ccb81613ba4565b613cd484613bb9565b81016020851015613ce3578190505b613cf7613cef85613bb9565b830182613c96565b50505b505050565b600082821c905092915050565b6000613d1d60001984600802613cff565b1980831691505092915050565b6000613d368383613d0c565b9150826002028217905092915050565b613d4f82612d52565b67ffffffffffffffff811115613d6857613d676130d8565b5b613d7282546137c8565b613d7d828285613cb9565b600060209050601f831160018114613db05760008415613d9e578287015190505b613da88582613d2a565b865550613e10565b601f198416613dbe86613ba4565b60005b82811015613de657848901518255600182019150602085019450602081019050613dc1565b86831015613e035784890151613dff601f891682613d0c565b8355505b6001600288020188555050505b505050505050565b60008190508160005260206000209050919050565b601f821115613e6e57613e3f81613e18565b613e4884613bb9565b81016020851015613e57578190505b613e6b613e6385613bb9565b830182613c96565b50505b505050565b613e7c82612ac0565b67ffffffffffffffff811115613e9557613e946130d8565b5b613e9f82546137c8565b613eaa828285613e2d565b600060209050601f831160018114613edd5760008415613ecb578287015190505b613ed58582613d2a565b865550613f3d565b601f198416613eeb86613e18565b60005b82811015613f1357848901518255600182019150602085019450602081019050613eee565b86831015613f305784890151613f2c601f891682613d0c565b8355505b6001600288020188555050505b505050505050565b6000819050919050565b613f60613f5b82612b50565b613f45565b82525050565b6000613f728287613f4f565b602082019150613f828286613842565b9150613f8e8285613842565b9150613f9a8284613842565b915081905095945050505050565b7f4e487b7100000000000000000000000000000000000000000000000000000000600052601160045260246000fd5b6000613fe282612b50565b9150613fed83612b50565b925082820190508082111561400557614004613fa8565b5b92915050565b7f202d200000000000000000000000000000000000000000000000000000000000600082015250565b60006140416003836137f9565b915061404c8261400b565b600382019050919050565b60006140638285613842565b915061406e82614034565b915061407a8284613842565b91508190509392505050565b7f20284f726967696e3a2000000000000000000000000000000000000000000000600082015250565b60006140bc600a836137f9565b91506140c782614086565b600a82019050919050565b60006140de8285613842565b91506140e9826140af565b91506140f58284613842565b915061410082613ac1565b91508190509392505050565b600060c08201905081810360008301526141268189612f76565b9050818103602083015261413a8188612f76565b9050818103604083015261414e8187612f76565b905061415d6060830186612b5a565b61416a6080830185612b5a565b61417760a0830184612b5a565b979650505050505050565b7f4f776e61626c653a206e6577206f776e657220697320746865207a65726f206160008201527f6464726573730000000000000000000000000000000000000000000000000000602082015250565b60006141de602683612f65565b91506141e982614182565b604082019050919050565b6000602082019050818103600083015261420d816141d1565b9050919050565b7f4f776e61626c653a2063616c6c6572206973206e6f7420746865206f776e6572600082015250565b600061424a602083612f65565b915061425582614214565b602082019050919050565b600060208201905081810360008301526142798161423d565b9050919050565b60006060820190506142956000830186612b9b565b6142a26020830185612b9b565b6142af6040830184612b5a565b949350505050565b60006040820190506142cc6000830185612b9b565b6142d96020830184612b9b565b9392505050565b7f5361666545524332303a20617070726f76652066726f6d206e6f6e2d7a65726f60008201527f20746f206e6f6e2d7a65726f20616c6c6f77616e636500000000000000000000602082015250565b600061433c603683612f65565b9150614347826142e0565b604082019050919050565b6000602082019050818103600083015261436b8161432f565b9050919050565b60006040820190506143876000830185612b9b565b6143946020830184612b5a565b9392505050565b7f4173206f662074696d657374616d702000000000000000000000000000000000600082015250565b60006143d16010836137f9565b91506143dc8261439b565b601082019050919050565b7f2c20736f7572636520666f7220746f7069632030780000000000000000000000600082015250565b600061441d6015836137f9565b9150614428826143e7565b601582019050919050565b7f3a20000000000000000000000000000000000000000000000000000000000000600082015250565b60006144696002836137f9565b915061447482614433565b600282019050919050565b600061448a826143c4565b915061449682876139f9565b91506144a182614410565b91506144ad82866139f9565b91506144b88261445c565b91506144c48285613842565b91506144cf82614034565b91506144db8284613842565b915081905095945050505050565b6000819050919050565b6145046144ff82612a5d565b6144e9565b82525050565b60007fffffffffffffffff00000000000000000000000000000000000000000000000082169050919050565b6000819050919050565b61455161454c8261450a565b614536565b82525050565b600061456382856144f3565b6020820191506145738284614540565b6008820191508190509392505050565b600060ff82169050919050565b61459981614583565b82525050565b600081519050919050565b600082825260208201905092915050565b6000819050602082019050919050565b60006040830160008301516145e36000860182612d43565b50602083015184820360208601526145fb8282612db8565b9150508091505092915050565b600061461483836145cb565b905092915050565b6000602082019050919050565b60006146348261459f565b61463e81856145aa565b935083602082028501614650856145bb565b8060005b8581101561468c578484038952815161466d8582614608565b94506146788361461c565b925060208a01995050600181019050614654565b50829750879550505050505092915050565b6000610120830160008301516146b76000860182612d34565b5060208301516146ca6020860182612d34565b5060408301516146dd6040860182612e68565b5060608301516146f06060860182612e68565b5060808301516147036080860182612d43565b5060a083015161471660a0860182614590565b5060c083015184820360c086015261472e8282612d6e565b91505060e083015184820360e08601526147488282614629565b9150506101008301518482036101008601526147648282612d6e565b9150508091505092915050565b6000604082019050818103600083015261478b818561469e565b9050818103602083015261479f8184612b17565b90509392505050565b6000815190506147b7816136d4565b92915050565b6000602082840312156147d3576147d2612a53565b5b60006147e1848285016147a8565b91505092915050565b7f5361666545524332303a204552433230206f7065726174696f6e20646964206e60008201527f6f74207375636365656400000000000000000000000000000000000000000000602082015250565b6000614846602a83612f65565b9150614851826147ea565b604082019050919050565b6000602082019050818103600083015261487581614839565b9050919050565b600061488782612b50565b91507fffffffffffffffffffffffffffffffffffffffffffffffffffffffffffffffff82036148b9576148b8613fa8565b5b600182019050919050565b7f4e487b7100000000000000000000000000000000000000000000000000000000600052601260045260246000fd5b60006148fe82612b50565b915061490983612b50565b925082614919576149186148c4565b5b828204905092915050565b600061492f82612b50565b915061493a83612b50565b925082820390508181111561495257614951613fa8565b5b92915050565b600061496382612b50565b915061496e83612b50565b9250817fffffffffffffffffffffffffffffffffffffffffffffffffffffffffffffffff04831182151516156149a7576149a6613fa8565b5b828202905092915050565b60006149bd82614583565b91506149c883614583565b9250828201905060ff8111156149e1576149e0613fa8565b5b92915050565b7f4e487b7100000000000000000000000000000000000000000000000000000000600052603260045260246000fd5b6000614a2282856144f3565b602082019150614a3282846144f3565b6020820191508190509392505050565b7f416464726573733a20696e73756666696369656e742062616c616e636520666f60008201527f722063616c6c0000000000000000000000000000000000000000000000000000602082015250565b6000614a9e602683612f65565b9150614aa982614a42565b604082019050919050565b60006020820190508181036000830152614acd81614a91565b9050919050565b6000614ae082846139f9565b915081905092915050565b7f416464726573733a2063616c6c20746f206e6f6e2d636f6e7472616374000000600082015250565b6000614b21601d83612f65565b9150614b2c82614aeb565b602082019050919050565b60006020820190508181036000830152614b5081614b14565b9050919050565b60006020820190508181036000830152614b718184612f76565b90509291505056fea26469706673582212206ea9ee21296bd9783f5662ae59a82b9cf780250f5412b4642eb9bc775bc4204164736f6c63430008100033",
        "linkReferences": {}
    },
    "methodIdentifiers": {
        "addLabel(string)": "18163bbe",
        "assertSource(bytes32,string,string,string)": "8c290ed5",
        "assertionDisputedCallback(bytes32)": "d448a4ec",
        "assertionLiveness()": "b75d4e24",
        "assertionResolvedCallback(bytes32,bool)": "f1b156b2",
        "commentManager()": "ea3c4961",
        "currency()": "e5a6b10f",
        "defaultIdentifier()": "d509b017",
        "ecpChannelId()": "c9fcac8b",
        "finder()": "b9a3c84c",
        "getSource(bytes32)": "396a4bf1",
        "getTopic(bytes32)": "cbea41d1",
        "initializeTopic(string,string,string,uint256,uint256)": "b5c67749",
        "isValidLabel(bytes32)": "375ff188",
        "oo()": "8921a614",
        "owner()": "8da5cb5b",
        "removeLabel(string)": "122e2900",
        "renounceOwnership()": "715018a6",
        "rewardToken()": "f7c618c1",
        "setEcpChannelId(uint256)": "b7dec70e",
        "sources(bytes32)": "5f1d78ae",
        "topics(bytes32)": "0f2fbeec",
        "transferOwnership(address)": "f2fde38b"
    },
    "id": 56
}